:020000040800F2
:100000001804002065010008FF1100089D0D00087C
:10001000FD110008650400087914000800000000C4
:100020000000000000000000000000002312000893
:1000300067040008000000002112000825120008D3
:100040007F0100087F0100087F0100087F01000890
:100050007F0100087F0100087F0100087F01000880
:100060007F0100087F0100087F0100087F01000870
:100070007F0100087F0100087F0100087F01000860
:100080007F0100087F0100087F0100087F01000850
:100090007F0100087F0100087F0100087F01000840
:1000A0007F0100087F0100087F0100087F01000830
:1000B0007F0100087F0100087F0100087F01000820
:1000C0007F0100087F0100087F0100087F01000810
:1000D0007F0100087F0100087F0100087F01000800
:1000E0007F0100087F0100087F0100080000000078
:1000F0000000000000000000000000000000000000
:1001000000000000000000007F0100087F010008DF
:100110007F0100087F0100087F0100087F010008BF
:100120007F0100087F0100087F0100087F010008AF
:100130007F0100087F0100087F0100087F0100089F
:100140007F0100087F0100087F0100087F0100088F
:10015000DFF80CD000F074F900480047991400084B
:10016000180400200648804706480047FEE7FEE7DF
:10017000FEE7FEE7FEE7FEE7FEE7FEE7FEE7FEE757
:1001800091120008510100082DE9F05F054600209A
:1001900092469B4688460646814640241BE02846F8
:1001A00041464746224600F020F853465A46C01AB8
:1001B000914110D311461846224600F0D4F82D1A6A
:1001C00067EB01084F4622460120002100F0CBF8E2
:1001D00017EB00094E41201EA4F10104DFDC484664
:1001E00031462A464346BDE8F09F202A04DB203AE8
:1001F00021FA02F00021704721FA02F3D040C2F147
:1002000020029140084319467047D2B201E000F83D
:10021000012B491EFBD270470022F6E710B51346AA
:100220000A4604461946FFF7F0FF204610BD2DE9A7
:10023000FE4F81EA030404F0004421F000410094E1
:100240004FF0000B23F0004350EA01045ED052EA65
:1002500003045BD0C3F30A54C1F30A552C44A4F23F
:10026000F3340194A0FB0254C1F3130141F4801153
:10027000C3F3130343F4801301FB024400FB034E5A
:10028000840A970A44EA815447EA8357A4FB076823
:1002900002958D0A05FB07854FEA932C04FB0C544D
:1002A0002705029D4FEA065847EA1637B5EB0805C1
:1002B0006EEB070C870E920E47EA811742EA831213
:1002C000A7FB0201B6EB0B0164EB00042B0D43EA24
:1002D0000C335E1844EB1C50DA465146E7FB020132
:1002E000C5F313044FEA0B3343EA14534FEA0432C5
:1002F000019C43EA0603A4F10C040294009CCDE99E
:1003000000B400F04EF803B0BDE8F08F00200146C5
:10031000F9E70EB5C10F80EAE0700844CA07002172
:1003200040F233438DE80E000A460B4600F039F8E0
:1003300003B000BDC1F30A5210B5C1F3130140F27E
:10034000FF3341F480119A4201DA002010BD40F2DF
:1003500033439A42A2F2334203DC5242FFF745FF95
:1003600010BD904010BD202A04DB203A00FA02F1B3
:10037000002070479140C2F1200320FA03F3194393
:100380009040704710B5141E73F1000408DA401C49
:1003900041F1000192185B411A4301D120F00100A4
:1003A00010BD2DE9F04D92469B4611B1B1FA81F294
:1003B00002E0B0FA80F220329046FFF7D4FF044604
:1003C0000F4640EA0A0041EA0B0153465A460843E9
:1003D00013D0114653EA010019D0C8F1400250462B
:1003E000FFF703FF05460E46504659464246FFF7C3
:1003F000BAFF084305D0012004E020463946BDE895
:10040000F08D0020054346EAE0762C4337430A98F6
:100410006305E40AA0EB08000022FD0A44EA475401
:100420000A3002D500200146E9E7010510196941AB
:10043000DDE9084500196941BDE8F04DA2E700007B
:10044000064C074D06E0E06840F0010394E8070021
:1004500098471034AC42F6D3FFF77EFECC14000868
:10046000EC140008FEE7704770B5044600F0F6F89B
:100470000546601C02D004480078044400F0EEF801
:10048000401BA042FAD370BD000000202DE9F84FB8
:10049000DFF890A100220AF1040B144601274FF067
:1004A0000F090BF1040E00BF0B6807FA04F52B408F
:1004B000AB4274D1DFF870C14E68A6EB0C086645FC
:1004C0002BD00DDC032E34D005DC36B3012E19D031
:1004D000022E2FD11BE0112E16D0122E2AD119E098
:1004E000B8F5881F19D006DCB8F5803F15D0B8F5EF
:1004F000801F1FD111E0B8F5001F0ED0B8F5041F02
:1005000018D10AE0CA6815E0CA68121D12E0CA686C
:1005100008320FE0CA680C320CE08A682AB1012A5E
:100520004FF0080203D0456104E0042202E00561B7
:1005300000E00022FF2B01D8064601E000F104068E
:100540004FEA840501D9A5F12005D6F800C009FAC3
:1005500005F82CEA080C02FA05F54CEA050CC6F879
:1005600000C04D68ED0057D5304DAE6946F001062C
:10057000AE61AD6924F0030605F0010500952C4D30
:1005800006EB050CDCF80850A6074FEA167809FAC6
:1005900008F6B543274EB04202D1002610E03BE0FA
:1005A000254EB04201D101260AE0244EB04201D1CD
:1005B000022605E0224EB04201D1032600E00426C7
:1005C00006FA08F62E43CCF808604D68DAF80060A9
:1005D000ED03554601D51E4300E09E432E604D6855
:1005E000DBF80060AD035D4601D51E4300E09E438D
:1005F0002E604D68DEF80060ED02754601D51E43A1
:1006000000E09E432E604D68AD020E4D2E6801D570
:100610001E4300E09E432E60641C102CFFF444AF88
:10062000BDE8F88F000401400000111000100240E6
:100630000000014000080140000C01400010014092
:10064000001401400C0401408068084000D00120E3
:1006500070470AB1016170470904FBE701488068EF
:1006600070470000000000200248816802781144B1
:100670008160704700000020074810B5016841F014
:1006800010010160032000F067F8002000F006F878
:1006900000F024F8002010BD0020024070B50D4D80
:1006A00004464FF47A712878B1FBF0F00A490968E2
:1006B000B1FBF0F000F05EFB48B9102C07D200222D
:1006C0002146501E00F028F800206C6070BD01200B
:1006D00070BD0000000000200C0000200C4808B590
:1006E000816941F001018161816901F0010100919D
:1006F000C16941F08051C161C06900F08050009033
:100700000448416821F0E06141F00071416008BD9A
:100710000010024000000140F0B40E4B1B680C4674
:10072000C3F30223C3F10705042D00D90425191DC5
:10073000072901D2002300E0DB1E012606FA05F19D
:10074000491E214099409E40761E16403143F0BC20
:1007500000F056BD0CED00E0064900F00702086805
:100760004FF6FF03184040EA0220034A1043086096
:10077000704700000CED00E00000FA052DE9F0479D
:10078000DFF8548105460E46D8F8000000F0070057
:10079000B0420CD2D8F8001021F007013143C8F85C
:1007A0000010D8F8000000F00700B0426FD12868B0
:1007B0004A4C810712D5400703D5606840F4E060D9
:1007C00060602878000703D5606840F4605060607E
:1007D0006068A96820F0F000084360602878C007CE
:1007E00044D06868012816D02168022816D08907ED
:1007F00000294CDA616821F0030101436160FFF7D1
:100800002DFF6968074641F2883001290ED0022980
:10081000814618D026E021688903E9E78901E7E7E6
:10082000FFF71CFFC11B494501D918E081466068EC
:10083000C0F381000128F3D118E000BFFFF70EFFDD
:10084000C11B49450BD86068C0F381000228F5D16F
:100850000CE000BFFFF702FFC11B494502D903208E
:10086000BDE8F087606810F00C0FF3D1D8F80010E5
:10087000404601F00701B1420BD9016821F00701A0
:1008800031430160006800F00700B04201D0012050
:10089000E6E72878400705D56068E96820F4E0605D
:1008A000084360602878000706D56068296920F44D
:1008B000605040EAC100606000F016F86168084AC4
:1008C000C1F30311515CC840064908600020FFF7DE
:1008D000E5FE0020C4E700000020024000100240B6
:1008E000BC1400080C000020F0B524A289B00FCA87
:1008F00004AC84E80F0025A10FC98DE80F0027483C
:10090000416801F00C02042A04D0082A04D02448CB
:1009100009B0F0BD2348FBE704AAC1F38343C90330
:10092000D45C28D5C16AC26A01F00F011DF801101C
:10093000D20316D5C26AC06AC2F30312521CA2FBCC
:100940000123C0F30320801CA0FB0415154F0026D3
:10095000A1FB070C05FB07C501FB0651FFF714FCC3
:1009600003E010486043B0FBF1F09DF81D10A14278
:10097000CED14008CCE70C486043C9E7000004052D
:100980000607080900000000000D00000102030432
:1009900005060708090A0B0C0D0E0F100010024087
:1009A00000127A0040787D0100093D002DE9F84FE2
:1009B00004460078EA4DC00748D06868C0F381005B
:1009C000012807D06868C0F38100022809D168684F
:1009D000C00306D52868800338D5A06800286FD0EA
:1009E00034E0A068B0F5803F0BD010B1B0F5A02F77
:1009F00011D0286820F480302860286820F48020F6
:100A000002E0286840F480302860A06888B1FFF7D1
:100A100025FE064609E0286840F480202860F0E7BB
:100A2000FFF71CFE801B642878D828688003F7D560
:100A30000CE0FFF713FE064605E000BFFFF70EFED1
:100A4000801B6428F0D828688003F7D42078C54E2E
:100A500080074FF001094FF000073CD5686810F09F
:100A60000C0F07D06868C0F38100022809D16868BC
:100A7000C00306D42868800715D5606901281FD1F6
:100A800011E06069B8B1C6F80090FFF7E7FD804655
:100A900006E000BFFFF7E2FDA0EB08000228C3D884
:100AA00028688007F6D52868A16920F0F80040EA98
:100AB000C10028600FE03760FFF7D0FD804607E0F7
:100AC0002DE100BFFFF7CAFDA0EB08000228ABD85C
:100AD00028688007F6D4207800072ED5A248E1695F
:100AE000E9B1C0F80090FFF7B9FD804606E000BF0D
:100AF000FFF7B4FDA0EB0800022895D8686A8007CC
:100B0000F6D59A484FF4FA510068B0FBF1F0009026
:100B100000BF0098411E0091FAD20EE0B0E00760DD
:100B2000FFF79CFD804605E0FFF798FDA0EB08006D
:100B3000022887D8686A8007F6D42078400763D5F2
:100B4000E8694FF00008C00009D4E86940F080501F
:100B5000E861E8694FF0010800F080500090844897
:100B60000168C90512D40168834641F480710160AF
:100B7000FFF774FD824605E0FFF770FDA0EB0A0069
:100B800064287DD8DBF80000C005F5D52069012870
:100B90000AD008B1052813D0286A20F00100286285
:100BA000286A20F0040002E0286A40F00100286270
:100BB000206941F2883B98B1FFF750FD82460BE077
:100BC000286A40F004002862EEE700BFFFF746FD08
:100BD000A0EB0A01594553D8286A8007F6D50CE0E6
:100BE000FFF73CFD824605E0FFF738FDA0EB0A0168
:100BF000594545D8286A8007F6D4B8F1000F03D0CC
:100C0000E86920F08050E861E06AD0B36968C90300
:100C100007D56968C1F38101022902D1E96AC903D4
:100C20007DD4022808D0E86A20F48030E862B766F4
:100C3000FFF714FD80463BE02868C00005D5E86A50
:100C4000616B00F0F000884269D1B766FFF706FDDE
:100C5000804605E0FFF702FDA0EB0800642874D889
:100C600028680001F6D4E86A616B20F0F0000843C0
:100C7000E862E86A216B20F470600843E86201E0F2
:100C800063E018E0C6F86890FFF7E8FC804605E0EE
:100C9000FFF7E4FCA0EB0800642856D828680001A0
:100CA000F6D508E0FFF7DAFCA0EB080064284CD882
:100CB00028680001F6D4206A90B36968C1F3810105
:100CC00002294AD00228376603D0FFF7C7FC044642
:100CD0003EE0FFF7C3FC074605E000BFFFF7BEFCA0
:100CE000C01B022831D828688001F7D4606AB0F5AB
:100CF000803F09D1E86A61680843E862E86AE16810
:100D000020F00F000843E862D4E90901084369684C
:100D100021F4741108436860C6F8609001E01CE09B
:100D200019E0FFF79BFC044605E000BFFFF796FCC7
:100D3000001B022809D828688001F7D50BE000BF06
:100D4000FFF78CFC001B022802D90320BDE8F88FB6
:100D500028688001F4D40020F8E70120F6E70000BD
:100D60000010024000004242800442420C00002079
:100D70000070004010B5401EB0F1807F01D301200B
:100D800010BD4FF0E02460610F21601700F038FAC9
:100D90000020A06107202061002010BDFEE70000B8
:100DA000012211020148FFF754BC00000018014065
:100DB00010B5FFF7F5FF00F00BF900F025F9012061
:100DC00000F066F94FF47A70FFF74EFBCB2000F08D
:100DD0005FF9392000F086F92C2000F083F900201B
:100DE00000F080F9342000F07DF9022000F07AF95B
:100DF000CF2000F04DF9002000F074F9832000F0BE
:100E000071F9302000F06EF9E82000F041F98520FA
:100E100000F068F9012000F065F9792000F062F92E
:100E2000EA2000F035F9002000F05CF9002000F025
:100E300059F9ED2000F02CF9642000F053F903205B
:100E400000F050F9122000F04DF9812000F04AF92D
:100E5000F72000F01DF9202000F044F9C02000F038
:100E600017F9262000F03EF9C12000F011F91120F9
:100E700000F038F9C52000F00BF9352000F032F908
:100E80003E2000F02FF9C72000F002F9BE2000F04C
:100E900029F9362000F0FCF8482000F023F93A2028
:100EA00000F0F6F8552000F01DF9B12000F0F0F840
:100EB000002000F017F91B2000F014F9B62000F014
:100EC000E7F80A2000F00EF9822000F00BF9272045
:100ED00000F008F9002000F005F9F22000F0D8F841
:100EE000082000F0FFF8262000F0D2F8012000F0E2
:100EF000F9F8E02000F0CCF81F2000F0F3F81A20F9
:100F000000F0F0F8182000F0EDF80A2000F0EAF800
:100F10000F2000F0E7F8062000F0E4F8452000F08C
:100F2000E1F8872000F0DEF8322000F0DBF80A203C
:100F300000F0D8F8072000F0D5F8022000F0D2F831
:100F4000072000F0CFF8052000F0CCF8002000F0DA
:100F5000C9F8E12000F09CF8002000F0C3F825203B
:100F600000F0C0F8272000F0BDF8052000F0BAF826
:100F7000102000F0B7F8092000F0B4F83A2000F093
:100F8000B1F8782000F0AEF84D2000F0ABF8052065
:100F900000F0A8F8182000F0A5F80D2000F0A2F845
:100FA000382000F09FF83A2000F09CF81F2000F055
:100FB00099F8112000F06CF87820FFF755FA2920F5
:100FC00000F066F8BDE81040012000F039B80000DC
:100FD00070B50C4C012291022046FFF73AFB4FF40A
:100FE0000045002229462046FFF733FB012229460F
:100FF0002046FFF72EFB2046BDE870400122D102BB
:10100000FFF727BB0018014070B501220B4D1402F9
:1010100021462846FFF71DFBC820FFF725FA0022CE
:10102000E1012846FFF715FBC820FFF71DFA21460E
:101030002846BDE870400122FFF70BBB00180140B5
:101040002DE9F0410746362000F022F80120FFF795
:101050000BFA0E4CF0254FF4A0766FB1012F0DD096
:10106000022F0DD0032F05D15FF0E80000F03AF811
:1010700066802580BDE8F081482002E02820F5E761
:10108000882000F02FF865802680F3E7100000200C
:1010900070B5134E04464FF40045002229463046F1
:1010A000FFF7D7FA0022E9103046FFF7D2FAE04303
:1010B0000B49C0B2103144EA00400860CC14002251
:1010C00021463046FFF7C5FA012221463046FFF798
:1010D000C0FA29463046BDE870400122FFF7B9BA90
:1010E0000018014070B5134E04464FF4004500222D
:1010F00029463046FFF7ADFA012211033046FFF7CB
:10110000A8FAE0430B49C0B2103144EA004008603D
:10111000CC14002221463046FFF79BFA01222146DB
:101120003046FFF796FA29463046BDE87040012266
:10113000FFF78FBA001801402DE9F04186B0002476
:101140002B480094019402940394816941F040017A
:101150008161816901F040010491816941F00401DC
:101160008161816901F004010491816941F02001EC
:10117000816180691F4F00F0200049F6FF750490DF
:10118000012229463846FFF764FADFF86C80012215
:1011900007214046FFF75DFA002220214046FFF775
:1011A00058FA0095022601250396CDE901546946B7
:1011B0003846FFF76BF90720CDE900050320CDE99C
:1011C000024069464046FFF761F918208DE851005A
:1011D00069464046FFF75AF92020CDE90005CDE9E0
:1011E000024669464046FFF751F906B0BDE8F08176
:1011F000001002400018014000140140FEE7704753
:101200000907090E002806DA00F00F0000F1E020BF
:1012100080F8141D704700F1E02080F8001470473A
:1012200070477047FFF720BA30B593B03821684651
:10123000FEF7F2FF14210EA8FEF7EEFF01242004B2
:101240000421CDE902010225CDE908500094019066
:1012500005944FF4E010CDE90A054FF4C0600C90FE
:1012600040200D906846FFF7A1FB0F20CDE90E0549
:101270000020A102CDE91001129002210EA8FFF773
:101280007DFA0248046713B030BD000000004242FE
:101290001048016841F00101016041680E4A1140A7
:1012A000416001680D4A11400160016821F480210C
:1012B0000160416821F4FE014160016821F0A05104
:1012C00001604FF47F0181600021C1620449C003C5
:1012D00008607047001002400000FFF0FFFFF6FEBC
:1012E00008ED00E02DE9F04110250F4E00244FF6E7
:1012F000FF7700BF012207EA440411463046FFF79A
:10130000A8F9002201213046FFF7A3F91021304649
:10131000FFF79AF908B1641CA4B26D1E15F0FF0521
:10132000E8D12046BDE8F081001401402DE9F047E6
:10133000DFF8D4900646012211464846FFF789F9A6
:10134000012202214846FFF784F901220421484680
:10135000FFF77FF900274FF47A7A55463C463A4624
:1013600004214846FFF775F90EE0902000F05EF882
:10137000FFF7B8FF0744D02000F058F8FFF7B2FF9E
:10138000641C80446D1E05D008214846FFF75CF9B7
:101390000028EAD0012204214D464846FFF759F9BA
:1013A000544504D108212846FFF74EF920B100200A
:1013B00030807080BDE8F087B8FBF4F0B7FBF4F143
:1013C000494240428CB280B240F21111B0FBF1F0C0
:1013D000C0F1E300FEF79DFF0C4D0D4F2A463B4642
:1013E000FEF725FFFEF7A6FF3080CC20B4FBF0F01F
:1013F0000F38FEF78EFF2A463B46FEF718FFFEF732
:1014000099FF70800120D5E7001401408FC2F528B4
:101410005C8FF23F10B508210348FFF715F908B1BA
:10142000002010BD012010BD0014014070B5114E08
:1014300005460824002201213046FFF70AF9280654
:1014400001D5012200E0002202213046FFF701F918
:101450006806050E012211463046FFF7FAF8002211
:1014600001213046FFF7F5F8641E14F0FF04E6D1C1
:1014700070BD000000140140FEE702E008C8121F22
:1014800008C1002AFAD170477047002001E001C16D
:10149000121F002AFBD1704708B5FFF7EDF8FFF7E0
:1014A000C3FEFFF749FEFFF783FC00BFFFF7B2FF63
:1014B0000028FBD06846FFF739FFF7E7000000007F
:1014C000000000000102030406070809EC140008EC
:1014D00000000020140000007A1400080015000825
:1014E00014000020040400008A1400080100000019
:1014F000100000000000000000A24A044001F000BB
:04000005080001519D
:00000001FF
