:020000040800F2
:10000000D804002065010008812200089F20000814
:100010007D22000861030008892400080000000018
:10002000000000000000000000000000E9220008BD
:100030006503000800000000BD220008EB22000854
:100040007F0100087F0100087F0100087F01000890
:100050007F0100087F0100087F0100087F01000880
:100060007F0100087F0100087F0100087F01000870
:100070007F0100087F0100087F0100087F01000860
:100080007F0100087F010008710200087F0100085D
:100090007F0100087F0100087F0100087F01000840
:1000A0007F0100087F0100087F0100087F01000830
:1000B0007F0100087F0100087F0100087F01000820
:1000C0007F0100087F0100087F0100087F01000810
:1000D0007F0100087F0100087F0100087F01000800
:1000E0007F0100087F0100087F0100080000000078
:1000F0000000000000000000000000000000000000
:1001000000000000000000007F0100087F010008DF
:100110007F0100087F010008F52300087F01000827
:100120007F0100087F0100087F0100087F010008AF
:100130007F0100087F0100087F0100087F0100089F
:100140007F0100087F0100087F0100087F0100088F
:10015000DFF80CD000F07AF800480047AD24000822
:10016000D80400200648804706480047FEE7FEE71F
:10017000FEE7FEE7FEE7FEE7FEE7FEE7FEE7FEE757
:1001800091230008510100082DE9F05F0546002089
:1001900092469B4688460646814640241BE02846F8
:1001A00041464746224600F020F853465A46C01AB8
:1001B000914110D311461846224600F038F82D1A06
:1001C00067EB01084F4622460120002100F02FF87E
:1001D00017EB00094E41201EA4F10104DFDC484664
:1001E00031462A464346BDE8F09F202A04DB203AE8
:1001F00021FA02F00021704721FA02F3D040C2F147
:1002000020029140084319467047D2B201E000F83D
:10021000012B491EFBD270470022F6E710B51346AA
:100220000A4604461946FFF7F0FF204610BD202A73
:1002300004DB203A00FA02F1002070479140C2F13D
:10024000200320FA03F3194390407047064C074DF2
:1002500006E0E06840F0010394E807009847103496
:10026000AC42F6D3FFF778FF30260008502600088E
:1002700010B5034800F03CFA024800F039FA10BD0E
:10028000380000206800002070B504460025206872
:10029000806800F00100F0B12068806820F0010063
:1002A0002168886000F012FE05460EE000F00EFEA8
:1002B000401B022809D9A06A40F01000A062E06A41
:1002C00040F00100E062012070BD2068806800F00D
:1002D00001000028EAD10020F6E7000038B5044606
:1002E0000025002000902068806800F0010080BB9D
:1002F0002068806840F00100216888601648006826
:100300001649B0FBF1F0009002E00098401E00900A
:1003100000980028F9D100F0D9FD054613E000F05F
:10032000D5FD401B02280ED9A06A40F01000A06243
:10033000E06A40F00100E06200BF002084F8240081
:1003400000BF012038BD2068806800F0010000284F
:10035000E5D00020F6E700001400002040420F0026
:1003600000BFFEE77047000070B505460C46322D11
:1003700006D3322C04D311480560114804601CE0F8
:1003800000200E4908600E49086000224FF4807179
:100390000C4800F095FD00224FF40071094800F070
:1003A0008FFD00224FF48061064800F089FD002295
:1003B0004FF40061034800F083FD70BD0000002091
:1003C0000400002000140140034B1860034B196027
:1003D000034B1A6070470000180000201C0000202A
:1003E0002000002010B50020074908700748006869
:1003F00000F014F80648006800F010F8054800689E
:1004000001F01AFD10BD000034000020180000208B
:100410001C0000202000002070470000F8B50446B2
:1004200000260020009000BF94F82400012801D18C
:100430000220F8BD012084F8240000BF2046FFF709
:1004400023FF0646002E62D1A06A20F4885040F0B7
:100450000200A062022000F00FFE30490968B1FBE3
:10046000F0F04000009002E00098401E00900098DC
:100470000028F9D12046FFF731FF2068806840F05E
:1004800008002168886000F021FD054611E000F0B9
:100490001DFD401B0A280CD9A06A20F0020040F084
:1004A0001000A06200BF002084F8240000BF0120DB
:1004B000BFE72068806800F008000028E7D12068C6
:1004C000806840F004002168886000F0FFFC054669
:1004D00011E000F0FBFC401B0A280CD9A06A20F0B8
:1004E000020040F01000A06200BF002084F8240049
:1004F00000BF01209DE72068806800F0040000280C
:10050000E7D1A06A20F0020040F00100A06200BF25
:10051000002084F8240000BF30468AE71400002041
:100520007047000038B5024600230020009000BF4D
:1005300092F82400012801D1022038BD012082F860
:10054000240000BF4868072812D21068406B0C795D
:10055000641E04EB84051F24AC40A0430D796D1E7E
:1005600005EB85050C68AC4020431468606327E008
:1005700048680D2812D21068006B0C79E41F04EB58
:1005800084051F24AC40A0430D79ED1F05EB8505C4
:100590000C68AC4020431468206311E01068C06A06
:1005A0000C790D3C04EB84051F24AC40A0430D796D
:1005B0000D3D05EB85050C68AC4020431468E062F6
:1005C00008680A2812D31068C0680C780A3C04EB4B
:1005D00044050724AC40A0430D780A3D05EB4505D2
:1005E0008C68AC4020431468E0600FE0106800693C
:1005F0000C7804EB44050724AC40A0430D7805EBD0
:1006000045058C68AC4020431468206108681028B8
:1006100002D00868112827D1174C1068A0421ED1BB
:100620001068806800F40000F0B91068806840F439
:1006300000001468A0600868102815D10F480068F1
:100640000F4CB0FBF4F000EB80004000009002E0A3
:100650000098401E009000980028F9D104E0906AAC
:1006600040F020009062012300BF002082F82400A7
:1006700000BF184661E7000000240140140000207C
:1006800040420F0010B50446114920680968096806
:10069000884209D10E48006800F026F80D4908602C
:1006A00002200D49087012E00C49206809680968A9
:1006B00088420CD10948006800F016F80849086023
:1006C000044800680749086004200349087010BD09
:1006D0001800002024000020340000201C0000200E
:1006E000300000202C00002001460868C06C7047D4
:1006F00010B504462068406800F0200020282FD163
:100700002068006800F00200022829D1A06A00F0E9
:10071000100018B9A06A40F40070A06220688068D8
:1007200000F46020B0F5602F13D1E06888B920682C
:10073000406820F0200021684860A06A20F48070A2
:10074000A062A06A00F4805018B9A06A40F00100CD
:10075000A0622046FFF796FF6FF012002168086044
:100760002068406800F0800080283BD12068006845
:1007700000F00400042835D1A06A00F0100018B978
:10078000A06A40F40050A0622068806800F4E04055
:10079000B0F5E04F0DD02068406800F48060D0B91B
:1007A0002068806800F46020B0F5602F13D1E06805
:1007B00088B92068406820F0800021684860A06AFD
:1007C00020F48050A062A06A00F4807018B9A06A7A
:1007D00040F00100A0622046FFF7A2FE6FF00C007F
:1007E000216808602068406800F0400040280FD170
:1007F0002068006800F0010050B1A06A40F4803029
:10080000A062204600F0A8F86FF00100216808609F
:1008100010BD00002DE9F041044600270025002608
:10082000A84614B90120BDE8F081A06810B1606944
:1008300000B100BFA06A30B90020E06284F8240053
:10084000204600F08BF82046FFF71EFD0746A06A01
:1008500000F01000002873D1002F71D1A06A20F49D
:10086000885040F00200A062E16960680843E168D6
:1008700040EA41000643A068B0F5807F02D0A0683E
:10088000012802D14FF4807000E000200543606928
:10089000012811D1E06838B9A069401E4FF4006109
:1008A00041EA4030054307E0A06A40F02000A06222
:1008B000E06A40F00100E0622068406820F469408E
:1008C00028432168486020688068214908403043F7
:1008D00021688860A068B0F5807F02D0A0680128F8
:1008E00002D14FF4807000E00020B0F5807F03D18A
:1008F000208A401E4FEA00582068C06A20F4700029
:1009000040EA08002168C8622068806811490840F0
:10091000B04208D10020E062A06A20F0020040F05E
:100920000100A06211E0A06A20F0020040F0100077
:10093000A062E06A40F00100E062012705E0FFE705
:10094000A06A40F01000A062012738466BE7000063
:10095000FDF7E1FFFE0E1FFF7047000010B586B0E7
:1009600004460020029003900490059030492068CE
:1009700088422BD100BF2F48806940F400702D4978
:1009800088610846806900F40070019000BF00BFD4
:1009900000BF0846806940F0080088610846806909
:1009A00000F00800019000BF00BF0120029003206A
:1009B000039002A9204800F0F5F800221146122009
:1009C00000F007FB122000F0F7FA2EE01B49206828
:1009D00088422AD100BF1748806940F480601549D9
:1009E00088610846806900F48060019000BF00BF04
:1009F00000BF0846806940F00800886108468069A9
:100A000000F00800019000BF00BF02200290032008
:100A1000039002A9084800F0C5F8002211461220F0
:100A200000F0D7FA122000F0C7FA06B010BD00009F
:100A30000024014000100240000C01400028014049
:100A400070B50446002500BF94F82400012801D1A8
:100A5000022070BD012084F8240000BF2046FFF76B
:100A60003DFC0546002D7DD1A06A40F6016188431A
:100A700040F48070A0623F492068884208D13E4817
:100A8000006800F4702008B9012002E0002000E0B6
:100A9000012078B1A06A20F48010A062206840682C
:100AA00000F4806000B3A06A20F4005040F480504D
:100AB000A06219E0A06A40F48010A0622E49091FCC
:100AC0002068884203D02B492068884204D12A48F4
:100AD000006800F4806000E0002028B1A06A20F4E3
:100AE000005040F48050A062A06A00F4805020B111
:100AF000E06A20F00600E06201E00020E06200BF52
:100B0000002084F8240000BFC01E2168086020680F
:100B1000406840F02000216848602068806800F448
:100B20006020B0F5602F16D112492068884208D1A4
:100B30001148006800F4702008B9012002E000208C
:100B400000E0012038B12068806840F4A0002168EE
:100B500088600CE006E02068806840F4801021681E
:100B6000886004E000BF002084F8240000BF28460D
:100B70006FE70000002801400424014070B50446DE
:100B800000F0A4F906462546681C10B10448007818
:100B9000054400BF00F09AF9801BA842FAD370BD4B
:100BA000100000202DE9F84703460024002000250E
:100BB0008446002700226EE14FF0010808FA02F493
:100BC000D1F8008008EA0400A0427DD1DFF8D0A26D
:100BD000D1F80480A8EB0A09D0453AD014DCB8F16A
:100BE000030F50D009DCB8F1000F31D0B8F1010F7C
:100BF0001CD0B8F1020F49D120E0B8F1110F18D084
:100C0000B8F1120F42D11EE0B9F5881F25D006DCDD
:100C1000B9F5803F20D0B9F5801F37D11AE0B9F57A
:100C2000001F18D0B9F5041F30D117E0D1F80CC05F
:100C30002DE0D1F80C8008F1040C28E0D1F80C80EC
:100C400008F1080C23E0D1F80C8008F10C0C1EE030
:100C500000BF00BF00BF00BF00BF00BFD1F80880C9
:100C6000B8F1000F02D14FF0040C0BE0D1F808806E
:100C7000B8F1010F03D14FF0080C1C6102E04FF0F6
:100C8000080C5C6103E04FF0000C00E000BF00BF07
:100C9000FF2801D8984601E003F104084646FF28E2
:100CA00002D84FEA820803E0A2F108084FEA880858
:100CB0004746D6F800804FF00F0909FA07F928EAED
:100CC00009080CFA07F900E088E048EA0908C6F8C4
:100CD0000080D1F8048008F08058B8F1805F7DD1A1
:100CE00000BFDFF8C081D8F8188048F00108DFF8AD
:100CF000B491C9F81880C846D8F8188008F00108DF
:100D0000CDF8008000BF00BF4FEAB9384FEA920922
:100D100058F829504FEA82784FEA18794FF00F08B7
:100D200008FA09F825EA0805DFF87C81434502D175
:100D30004FF0000816E0DFF87481434502D14FF010
:100D400001080FE0DFF86881434502D14FF0020847
:100D500008E0DFF86081434502D14FF0030801E06D
:100D60004FF004084FEA82794FEA197908FA09F836
:100D700048EA0505DFF840814FEA920948F8295012
:100D8000D1F8048008F48038B8F5803F0AD1DFF844
:100D90002C81D8F8008048EA0008DFF82091C9F8D3
:100DA000008009E0DFF81481D8F8008028EA000804
:100DB000DFF80891C9F80080D1F8048008F4003801
:100DC000B8F5003F10D1DFF8F48008F10408D8F836
:100DD000008048EA0008DFF8E49000E05AE009F1FA
:100DE0000409C9F800800DE0DFF8D08008F104089C
:100DF000D8F8008028EA0008DFF8C09009F104095B
:100E0000C9F80080D1F8048008F48018B8F5801F74
:100E10000ED1DFF8A88008F10808D8F8008048EA69
:100E20000008DFF8989009F10809C9F800800DE082
:100E3000DFF8888008F10808D8F8008028EA000860
:100E4000DFF8789009F10809C9F80080D1F804802A
:100E500008F40018B8F5001F0ED1DFF8608008F123
:100E60000C08D8F8008048EA0008DFF8509009F133
:100E70000C09C9F800800DE0DFF8408008F10C088B
:100E8000D8F8008028EA0008DFF8309009F10C0952
:100E9000C9F80080521C102AFFF48EAEBDE8F88716
:100EA000000011100010024000080140000C014039
:100EB00000100140001401400800014000040140FE
:100EC0000AB1016101E00B04036170470148006849
:100ED00070470000080000200348006803490978B3
:100EE00008440149086070470800002010000020F5
:100EF00010B50848006840F010000649086003205B
:100F000000F0A6F8002000F007F800F02BF8002011
:100F100010BD00000020024070B504460E48007865
:100F20004FF47A71B1FBF0F00C490968B1FBF0F5B0
:100F3000284600F0F7FE08B1012070BD102C07D242
:100F400000222146501E00F044F80548046001E0EC
:100F50000120F2E70020F0E710000020140000203C
:100F60000C00002008B500BF1148806940F0010066
:100F70000F4988610846806900F00100009000BFB9
:100F800000BF00BF0846C06940F08050C8610846F5
:100F9000C06900F08050009000BF00BF00BF05494D
:100FA000486820F0E06040F00070486000BF08BD75
:100FB000001002400000014000BF00F01F020121AC
:100FC00091404209920002F1E022C2F8001100BFF4
:100FD00070472DE9F05F80460D461646002701F068
:100FE00051F9074639462A46334601F00700C0F159
:100FF000070ABAF1040F02D94FF0040A01E0C0F168
:10100000070AD14600F1040ABAF1070F02D24FF0E5
:10101000000A01E0A0F1030AD4464FF0010A0AFADF
:1010200009FAAAF1010A0AEA020A0AFA0CFA4FF0CE
:10103000010B0BFA0CFBABF1010B0BEA030B4AEAB9
:101040000B042146404601F025F9BDE8F09F000061
:1010500000BF00F00702064B19684FF6FF03194066
:10106000044B0B4343EA0221014B196000BF704758
:101070000CED00E00000FA052DE9F04F89B0804644
:101080007DA1D1E90023D1E90201CDE90523CDE914
:1010900007017DA3D3E90020D3E9021302AC0BC4FE
:1010A00001924FF0000900250026AB46AA46002712
:1010B000002400200090B8F1040F59D006DCB8F1EC
:1010C000010F76D0B8F1020F74D1C2E0B8F1080F69
:1010D00072D0B8F1100FF7D16F484468006800F083
:1010E0008070002843D005A8C4F38341465C04F413
:1010F000803058B36848C06A00F00F0001A911F8A9
:1011000000906548C06A00F48030A0B16248C06AAF
:10111000C0F30310471C6048C06AC0F3032000F10D
:10112000020B5E48B0FBF7F000FB0BF0B0FBF9F0F0
:1011300000FB06F504E05948B0FBF9F000FB06F5AA
:101140009DF82100B04204D16D0802E0544806FB2E
:1011500000F55148406800F48000B0F5800F01D1DF
:10116000009504E068000321B0FBF1F000907DE001
:101170004948C06A00F4003018B900F09BFA0090AA
:1011800016E04548006800F0805088B14248C06AC7
:10119000C0F30310471C4048C06AC0F3033000F19D
:1011A000020A3E48B0FBF7F000FB0AF04000009056
:1011B0005CE022E059E0FFE73748C06A00F4802095
:1011C00018B900F077FA009016E03348006800F094
:1011D000805088B13048C06AC0F30310471C2E48C5
:1011E000C06AC0F3033000F1020A2C48B0FBF7F0EC
:1011F00000FB0AF04000009038E02748046A04F43D
:101200004070B0F5807F06D104F0020018B14FF4B1
:10121000004000901CE004F44070B0F5007F08D15D
:101220001D48406A00F0020018B149F640400090A5
:101230000EE004F44070B0F5407F07D11648006816
:1012400000F4003010B11748009001E00020009039
:101250000CE000F01FFA10494968C1F38131491CC4
:101260004900B0FBF1F0009000E000BF00BF009823
:1012700009B0BDE8F08F000000000405060708096A
:1012800000000000000D000001020304050607082D
:10129000090A0B0C0D0E0F100010024040787D0162
:1012A00000093D00F0FA02002DE9F843044600264B
:1012B00000250027207800F0010000286ED0A84605
:1012C0007948C06900F0805078B900BF7648C0699D
:1012D00040F080507449C8610846C06900F08050F1
:1012E000009000BF00BF4FF001087048006800F494
:1012F0008070B8B96D48006840F480706B49086030
:10130000FFF7E4FD064607E0FFF7E0FD801B6428D9
:1013100002D90320BDE8F8836448006800F48070B7
:101320000028F1D06048006A00F440752DB3A08811
:1013300000F44070A84220D05B48006A20F4407559
:1013400001205B490860002008605748056205F0ED
:10135000010090B1FFF7BAFD064608E0FFF7B6FDC1
:10136000801B41F28831884201D90320D2E74E48E0
:10137000006A00F002000028F0D04B48006A20F418
:1013800040706168084348490862B8F1010F04D110
:101390000846C06920F08050C86100BF207800F086
:1013A0000200022807D14048406820F44040A1686C
:1013B00008433D494860207800F00400042807D124
:1013C0003948C06A20F40030E16808433649C862F1
:1013D000207800F00800082807D13348C06A20F4BC
:1013E0008020216908433049C8622F48C06A00F450
:1013F000003020B92C48C06A00F4802000B10127D9
:10140000012F41D12848006800F0805090BB264849
:10141000006800F0806040B12348C06A00F0F0012D
:10142000A069814201D0012074E71F48C06A20F002
:10143000F000A16908431C49C8620846C06A20F44C
:101440007040616908431849C8620120194908675A
:10145000FFF73CFD064606E0FFF738FD801B6428D9
:1014600001D9032056E71048006800F0005000281A
:10147000F2D009E0FFE70C48C06A00F470406169EF
:10148000884201D0012045E7207800F010001028A4
:1014900007D10548406820F48000E169084302490B
:1014A0004860002036E70000001002400070004055
:1014B000400442420000424270B504460D460026F8
:1014C0006D48006800F00700A8420ED26A48006824
:1014D00020F007002843684908600846006800F0CB
:1014E0000700A84201D0012070BD207800F0020062
:1014F00002281DD1207800F00400042805D15F489F
:10150000406840F4E0605D494860207800F00800E1
:10151000082805D15948406840F460505749486050
:101520005648406820F0F000A168084353494860DD
:10153000207800F0010000285DD06068012806D105
:101540004E48006800F4003090B90120CCE7606894
:10155000022806D14948006800F0007040B9012017
:10156000C2E74648006800F0020008B90120BBE766
:101570004248406820F00300616808433F494860E2
:10158000FFF7A4FC06466068012810D108E0FFF7C9
:101590009DFC801B41F28831884201D90320A3E7DA
:1015A0003648406800F00C000428F0D123E0606861
:1015B000022810D108E0FFF789FC801B41F2883136
:1015C000884201D903208FE72C48406800F00C00C6
:1015D0000828F0D10FE008E0FFF778FC801B41F20B
:1015E0008831884201D903207EE72448406800F012
:1015F0000C000028F0D12048006800F00700A84245
:101600000ED91D48006820F0070028431A490860D9
:101610000846006800F00700A84201D0012063E7F7
:10162000207800F00400042807D11448406820F412
:10163000E060E168084311494860207800F0080044
:10164000082808D10D48406820F46050216940EA1C
:10165000C1000A49486000F02DF808494968C1F303
:101660000311074A515CC840064908600020FFF793
:1016700053FC002038E70000002002400010024028
:101680001826000814000020014800687047000078
:101690001400002000B5FFF7F7FF04494968C1F3C3
:1016A000C221034A515CC84000BD00000010024046
:1016B000282600082DE9F04F8BB03CA2D2E9013179
:1016C0001068D268CDE908310A9207903BA3D3E9AC
:1016D0000020D3E9021304AC0BC403924FF00009BD
:1016E000CB46CA4600240020029001900090374863
:1016F000D0F8049009F00C0000284FD0042802D044
:1017000008284AD102E0324802904AE007A8C9F30B
:101710008341445C09F48030C0B32C48C06A00F0B7
:101720000F0003A911F800B02848C06A00F4803007
:1017300008B32648C06AC0F30310401C0190234838
:10174000C06AC0F30320801C00900198A0FB0B50DE
:1017500006461F490098A1FB00210023A2FB047C40
:1017600001FB04C102FB03112A4633463846FEF74B
:101770000BFD824603E016486043B0FBFBFA9DF880
:101780002900A04206D14FEA5A0A03E0FFE71148B8
:1017900004FB00FACDF808A003E000BF0E48029059
:1017A00000BF00BF02980BB0BDE8F08F0000040539
:1017B0000607080900000000000D000001020304F4
:1017C00005060708090A0B0C0D0E0F100010024049
:1017D00040787D0100093D0000127A00F8B504460A
:1017E0000025207800F00100002878D0FD484068EE
:1017F00000F00C0004280CD0FA48406800F00C00FF
:10180000082811D1F748406800F48030B0F5803FD7
:101810000AD1F448006800F4003000285FD0A068C6
:1018200000285CD10120F8BD00BFA068B0F5803F62
:1018300006D1EC48006840F48030EA49086028E0AE
:10184000A06858B9E748006820F48030E54908608E
:101850000846006820F4802008601AE0A068B0F50F
:10186000A02F0BD1DF48006840F48020DD490860DC
:101870000846006840F4803008600AE0D9480068F3
:1018800020F48030D74908600846006820F48020A2
:10189000086000BFA06888B1FFF718FB054606E0A6
:1018A000FFF714FB401B642801D90320BBE7CD4898
:1018B000006800F400300028F2D010E0FFF706FBCB
:1018C000054606E0FFF702FB401B642801D9032010
:1018D000A9E7C448006800F400300028F2D120785D
:1018E00000F00200022857D1BE48406800F00C000A
:1018F00050B1BC48406800F00C00082818D1B94825
:10190000406800F4803098B9B648006800F00200E2
:1019100020B16069012801D0012084E7B148006846
:1019200020F0F800A16940EAC100AE49086033E048
:101930006069E8B10120AC490860FFF7C7FA0546C5
:1019400006E0FFF7C3FA401B022801D903206AE72B
:10195000A448006800F002000028F2D0A148006806
:1019600020F0F800A16940EAC1009E49086013E038
:1019700000209D490860FFF7A9FA054606E0FFF739
:10198000A5FA401B022801D903204CE795480068BE
:1019900000F002000028F2D1207800F008000828AA
:1019A0002DD1E069B8B1012090490860FFF78EFAA7
:1019B000054606E0FFF78AFA401B022801D90320FA
:1019C00031E78848406A00F002000028F2D0012088
:1019D00000F076FC13E0002084490860FFF776FAF7
:1019E000054606E0FFF772FA401B022801D90320E2
:1019F00019E77C48406A00F002000028F2D1207804
:101A000000F00400042873D100267648C06900F075
:101A1000805070B900BF7348C06940F08050714970
:101A2000C8610846C06900F08050009000BF00BF48
:101A300001266F48006800F48070B0B96C480068F7
:101A400040F480706A490860FFF740FA054606E0F6
:101A5000FFF73CFA401B642801D90320E3E6644801
:101A6000006800F480700028F2D000BF20690128CF
:101A700006D15C48006A40F001005A49086227E03C
:101A8000206958B95748006A20F00100554908629A
:101A90000846006A20F00400086219E02069052861
:101AA0000BD15048006A40F004004E4908620846D5
:101AB000006A40F0010008620AE04A48006A20F02B
:101AC0000100484908620846006A20F004000862E4
:101AD00000BF2069A0B1FFF7F9F9054609E0FFF75B
:101AE000F5F9401B41F28831884202D903209AE679
:101AF00022E03C48006A00F002000028EFD012E02B
:101B0000FFF7E4F9054608E0FFF7E0F9401B41F272
:101B10008831884201D9032085E63248006A00F006
:101B200002000028F0D1012E05D12E48C06920F016
:101B300080502C49C86100BFE06AA0B329484068C2
:101B400000F48030B0F5803F0ED12648406800F0A8
:101B50000C00082808D12348C06A00F48030B0F592
:101B6000803F01D101205EE6E06A022850D11D4885
:101B7000006800F0805040B11A48C06A00F0F001DF
:101B8000606B814201D001204DE600201649886635
:101B9000FFF79CF9054607E0FFF798F9401B64281A
:101BA00002D903203FE64DE00E48006800F00060D7
:101BB0000028F1D10B48C06A20F0F000616B0843A7
:101BC0000849C8620846C06A20F47060216B084367
:101BD0000449C862012004498866FFF777F9054681
:101BE0000FE0000000100240000042428004424228
:101BF00000700040FFF76AF9401B642801D90320F8
:101C000011E64648006800F000600028F2D019E0B4
:101C10004248C06A20F480304049C86200204049F0
:101C20008866FFF753F9054606E0FFF74FF9401BBA
:101C3000642801D90320F6E53848006800F0006008
:101C40000028F2D1206AE0B33448406800F00C006C
:101C500008285ED0206A022846D100203049086654
:101C6000FFF734F9054606E0FFF730F9401B02287C
:101C700001D90320D7E52948006800F0007000284A
:101C8000F2D1606AB0F5803F0DD12448C06A616826
:101C900008432249C8620846C06A20F00F00E16884
:101CA00008431E49C862D4E9090108431B49496831
:101CB00021F4741108431949486001201849086645
:101CC00000E028E0FFF702F9054606E0FFF7FEF81E
:101CD000401B022801D90320A5E51048006800F048
:101CE00000700028F2D016E000200D490866FFF7CA
:101CF000EDF8054606E0FFF7E9F8401B022801D998
:101D0000032090E50548006800F000700028F2D13B
:101D100001E0012087E5002085E500000010024079
:101D20000000424270B504462546681EB0F1807F2F
:101D300001D301200FE0681E4FF0E02148610F2120
:101D40004FF0FF3000F0A6FA00204FF0E02188614C
:101D500007200861002070BD70477047024600BF31
:101D600092F83C00012801D102207047012082F83E
:101D70003C0000BF022082F83D001068406820F05F
:101D8000700013685860106840680B681843136847
:101D900058601068806820F08000136898601068B0
:101DA00080684B68184313689860012082F83D00F2
:101DB00000BF002082F83C0000BF00BFD5E710B58F
:101DC00004460CB9012010BD94F83D0028B900204C
:101DD00084F83C00204600F00DF8022084F83D0015
:101DE000211D206800F00EFB012084F83D0000203A
:101DF000E9E7000038B504460D492068884215D14E
:101E000000BF0C48C06940F010000A49C86108468C
:101E1000C06900F01000009000BF00BF0022114612
:101E20003620FFF7D6F83620FFF7C6F838BD000099
:101E3000001000400010024001460868C06840F0F1
:101E400001000A68D0600868006840F001000A6874
:101E5000106000207047704710B504462068006984
:101E6000C0F34000D8B12068C068C0F34000B0B1F2
:101E70006FF00200216808610120207720688069E6
:101E800000F0030018B12046FFF7E5FF05E020460B
:101E900000F0ADF8204600F0ABF800202077206875
:101EA0000069C0F38000D8B12068C068C0F380002A
:101EB000B0B16FF00400216808610220207720682B
:101EC000806900F4407018B12046FFF7C4FF05E0B8
:101ED000204600F08CF8204600F08AF80020207799
:101EE00020680069C0F3C000D8B12068C068C0F3A2
:101EF000C000B0B16FF008002168086104202077AD
:101F00002068C06900F0030018B12046FFF7A3FF66
:101F100005E0204600F06BF8204600F069F800204C
:101F2000207720680069C0F30010D8B12068C0682D
:101F3000C0F30010B0B16FF01000216808610820F4
:101F400020772068C06900F4407018B12046FFF780
:101F500082FF05E0204600F04AF8204600F048F8ED
:101F6000002020772068006900F0010058B1206847
:101F7000C06800F0010030B16FF001002168086115
:101F8000204600F037F820680069C0F3C01058B14F
:101F90002068C068C0F3C01030B16FF080002168C5
:101FA00008612046FFF7D8FE20680069C0F3801062
:101FB00058B12068C068C0F3801030B16FF04000A5
:101FC00021680861204600F069F820680069C0F3C4
:101FD000401058B12068C068C0F3401030B16FF0B5
:101FE0002000216808612046FFF7B7FE10BD70474A
:101FF0007047000010B504462248007806283DD2FC
:10200000DFE800F003121A29313B01201D49087056
:10201000012201021C48FEF753FF00224FF4007119
:102020001948FEF74DFF2AE00520164908701748A9
:102030000068FEF705FD22E0032012490870002227
:102040004FF480711048FEF73BFF012251020E4809
:10205000FEF736FF13E005200A4908700C480068B7
:10206000FEF7EEFC0BE00020064908700948016805
:1020700009480068FEF778F901E000E000BF00BF02
:1020800010BD000034000020000C014018000020AA
:102090001C000020300000202C000020704700BFF2
:1020A000FEE700000EB5002000900190029012485B
:1020B00012490860002111488160C16041614FF4FC
:1020C0006021C16100200D49486001210B48016178
:1020D000FEF7A0FB08B1FEF79FF908200090012051
:1020E00001900020029069460448FEF71BFA08B1EF
:1020F000FEF792F90EBD00000024014038000020D8
:102100000EB500200090019002901248124908601C
:10211000002111488160C16041614FF46021C161BB
:1021200000200D49486001210B480161FEF772FB58
:1021300008B1FEF771F909200090012001900020FC
:10214000029069460448FEF7EDF908B1FEF764F91C
:102150000EBD0000002801406800002000B585B0D9
:102160000020019002900390049000BF2D488069E8
:1021700040F010002B4988610846806900F010008B
:10218000009000BF00BF00BF0846806940F0080013
:1021900088610846806900F00800009000BF00BF19
:1021A00000BF0846806940F02000886108468069C9
:1021B00000F02000009000BF00BF00BF084680690B
:1021C00040F0040088610846806900F00400009037
:1021D00000BF00BF00224FF470611348FEF770FE8D
:1021E00000224FF440711148FEF76AFE4FF4706010
:1021F000019001200290002003900220049001A988
:102200000948FEF7CFFC4FF4407001900120029086
:10221000002003900220049001A90448FEF7C2FCAC
:1022200005B000BD0010024000140140000C014048
:102230001CB50020009001900E480F4908600F2047
:10224000486000210C4881604FF6FF71C160002199
:102250008161FFF7B4FD08B1FEF7DEF800200090C1
:10226000019069460448FFF779FD08B1FEF7D4F8FC
:102270001CBD0000001000409800002000BFFEE7D9
:102280007047000002480068C0F302207047000059
:102290000CED00E010B5002807DA0A07140E054A15
:1022A00000F00F031B1FD45403E00A07130E024A69
:1022B000135410BD18ED00E000E400E0704700008A
:1022C00008B508490968C9084FF47A72B1FBF2F100
:1022D0004143009100BF00BF00994A1E00920029AF
:1022E000F9D108BD14000020704710B5FEF7F4FDC9
:1022F00010BD000000B59BB038210DA8FDF78CFF84
:10230000142108A8FDF788FF20216846FDF784FF07
:1023100001200D9000040F900420109001201290D5
:1023200000040E9002201590C10316914FF4E011A5
:10233000179118904FF4C061199140211A910DA87E
:10234000FFF74CFA08B1FEF767F80F20089002205B
:10235000099000200A904FF480600B9000200C90B0
:10236000022108A8FFF7A8F808B1FEF755F80220E7
:102370000090800302906846FEF796FF08B1FEF7D2
:102380004BF80120014908671BB000BD0000424224
:102390001448006840F0010012490860084640688F
:1023A000114908400F494860084600680F49084035
:1023B0000C4908600846006820F480200860084640
:1023C000406820F4FE0048600846006820F0A050F5
:1023D00008604FF47F0088600020C862C803044989
:1023E00008607047001002400000FFF0FFFFF6FE9B
:1023F00008ED00E010B50248FFF72EFD10BD00000B
:1024000098000020002202681B4B98420BD0B0F1CC
:10241000804F08D0194B984205D0194B984202D0F2
:10242000184B984203D122F070024B681A43124BAA
:1024300098420BD0B0F1804F08D0104B984205D095
:102440000F4B984202D00F4B984203D122F44072B6
:10245000CB681A4322F080024B691A4302608B68F2
:10246000C3620B688362044B984201D10B6903631A
:102470000123436170470000002C0140000400402C
:1024800000080040000C004000BFFEE702E008C862
:10249000121F08C1002AFAD170477047002001E0DE
:1024A00001C1121F002AFBD170470000FEF720FD7A
:1024B000FFF720FFFFF752FEFFF7F4FDFFF720FEC6
:1024C000FFF7B6FE4E4A4F494F48FDF77DFFFDF737
:1024D00089FF93E04D480068B0F5AF6F41D34B489A
:1024E0000068B0F5166F3CD849480068B0F5967F93
:1024F0001CD34748006840F24651884216D8012252
:1025000011024448FEF7DCFC00224FF40071414800
:10251000FEF7D6FC012291023E48FEF7D1FC0022D4
:102520004FF400613B48FEF7CBFC1AE038480068E6
:10253000B0F52F6F15D300224FF480713548FEF7A8
:10254000BFFC012251023348FEF7BAFC00224FF4CF
:1025500080613048FEF7B4FC0122D1022D48FEF71D
:10256000AFFC2B48006840F2AA51884243D3284868
:10257000006840F68C2188423DD824480068B0F5B8
:10258000967F1CD32148006840F21451884216D827
:1025900000224FF480711F48FEF792FC0122510285
:1025A0001C48FEF78DFC012291021A48FEF788FCB8
:1025B00000224FF400611748FEF782FC1BE013482D
:1025C000006840F6C411884215D301221102114857
:1025D000FEF776FC00224FF400710E48FEF770FC07
:1025E00000224FF480610B48FEF76AFC0122D10201
:1025F0000848FEF765FC0A20FEF7C0FA6AE700000B
:102600009800002068000020380000200000002012
:102610000400002000140140000000000000000041
:102620000102030406070809000000000102030478
:102630005026000800000020380000008C2400080C
:102640008826000838000020A00400009C24000810
:10265000000000000000000000000000100000006A
:102660000100000000A24A04000000000000000079
:10267000000000000000000000000000000000005A
:08268000000000000000000052
:04000005080001519D
:00000001FF
