:020000040800F2
:100000006005002065010008D5330008252D000893
:10001000D1330008B1080008C53A0008000000000C
:100020000000000000000000000000003D34000857
:10003000B508000800000000113400083F34000833
:100040007F0100087F0100087F0100087F01000890
:100050007F0100087F0100087F0100087F01000880
:100060007F0100087F0100087F0100087F01000870
:100070007F0100087F0100087F0100087F01000860
:100080007F0100087F010008C10700087F01000808
:100090007F0100087F0100087F0100087F01000840
:1000A0007F0100087F0100087F0100087F01000830
:1000B0007F0100087F0100087F0100087F01000820
:1000C0007F0100087F0100087F0100087F01000810
:1000D0007F010008B53A00087F0100087F01000891
:1000E0007F0100087F0100087F0100080000000078
:1000F0000000000000000000000000000000000000
:1001000000000000000000007F0100087F010008DF
:100110007F0100087F010008493500087F010008C1
:100120007F0100087F0100087F0100087F010008AF
:100130007F0100087F0100087F0100087F0100089F
:100140007F0100087F0100087F0100087F0100088F
:10015000DFF80CD000F0D0FA00480047DD3D000881
:10016000600500200648804706480047FEE7FEE796
:10017000FEE7FEE7FEE7FEE7FEE7FEE7FEE7FEE757
:10018000E5340008510100082DE9F05F0546002024
:1001900092469B4688460646814640241BE02846F8
:1001A00041464746224600F020F853465A46C01AB8
:1001B000914110D311461846224600F00FF92D1A2E
:1001C00067EB01084F4622460120002100F006F9A6
:1001D00017EB00094E41201EA4F10104DFDC484664
:1001E00031462A464346BDE8F09F202A04DB203AE8
:1001F00021FA02F00021704721FA02F3D040C2F147
:1002000020029140084319467047D2B201E000F83D
:10021000012B491EFBD270470022F6E710B51346AA
:100220000A4604461946FFF7F0FF204610BD2DE9A7
:10023000FE4F804681EA0300C00F0C46009021F07B
:10024000004123F00045B8EB0200A94105D2404629
:10025000214690461C460B46024623F000401043C0
:1002600047D0270DC7F30A00C3F30A510290401A82
:10027000019040286BDAC3F3130040F4801B009810
:10028000924620B10023D2EB030A63EB0B0B0198DB
:100290005946C0F14002504600F0A0F806460D460F
:1002A00050465946019A00F0A8F810EB0800614149
:1002B000002487EA115284EAE7731A4340D0009A77
:1002C00062B3019A012A4FEA075215DC001B61EB69
:1002D00002014FF0004202EA0752CDE90042001C41
:1002E00041F5801132462B4600F0A8F803B0BDE876
:1002F000F08F40462146F9E7001B61EB0201001C2C
:1003000041F5801300185B412018A2F5001747EB58
:10031000030140EAD570B6196D4111E06D084FEA4E
:10032000360645EAC0754FEA0752001B61EB020131
:10033000001C41F5801149084FEA30000019514175
:1003400032462B4603B0BDE8F04F00F068B8009885
:10035000012240000023D0EB020263EBE07300981F
:1003600021464FEAE074B8EB000061EB0401E9E7D5
:1003700083F000435BE781F0004158E70EB5C10F01
:1003800080EAE0700844CA07002140F233438DE858
:100390000E000A460B4600F051F803B000BD70B5E0
:1003A000C1F30A5201F000450024C1F3130140F2E9
:1003B000FF3341F480119A4201DA002070BD40F20F
:1003C00033439A42A2F2334203DC5242FFF70DFF5D
:1003D00000E090402C43F1D0404270BD202A04DB65
:1003E000203A00FA02F1002070479140C2F1200348
:1003F00020FA03F3194390407047202A06DBCB17FD
:10040000203A41FA02F043EAE07306E041FA02F3CF
:10041000D040C2F12002914008431946704710B500
:10042000141E73F1000408DA401C41F10001921817
:100430005B411A4301D120F0010010BD2DE9F04DC0
:1004400092469B4611B1B1FA81F202E0B0FA80F215
:1004500020329046FFF7C2FF04460F4640EA0A00EA
:1004600041EA0B0153465A46084313D0114653EA5A
:10047000010019D0C8F140025046FFF7B6FE05460C
:100480000E46504659464246FFF7A8FF084305D09E
:10049000012004E020463946BDE8F08D00200543E8
:1004A00046EAE0762C4337430A986305E40AA0EB5A
:1004B00008000022FD0A44EA47540A3002D5002011
:1004C0000146E9E7010510196941DDE90845001910
:1004D0006941BDE8F04DA2E72DE9FE4F81EA030432
:1004E00004F0004421F0004100944FF0000B23F091
:1004F000004350EA01045ED052EA03045BD0C3F328
:100500000A54C1F30A552C44A4F2F3340194A0FB1D
:100510000254C1F3130141F48011C3F3130343F4F4
:10052000801301FB024400FB034E840A970A44EA4D
:10053000815447EA8357A4FB076802958D0A05FB9F
:1005400007854FEA932C04FB0C542705029D4FEAC4
:10055000065847EA1637B5EB08056EEB070C870E11
:10056000920E47EA811742EA8312A7FB0201B6EB1B
:100570000B0164EB00042B0D43EA0C335E1844EBD3
:100580001C50DA465146E7FB0201C5F313044FEA5B
:100590000B3343EA14534FEA0432019C43EA060347
:1005A000A4F10C040294009CCDE900B4FFF746FFCF
:1005B00003B0BDE8F08F00200146F9E72DE9F04DCA
:1005C00081EA030404F0004B21F0004514464FF08B
:1005D000000A23F0004150EA050220D054EA01024B
:1005E0001DD0C5F30A570246C5F31303C1F3130028
:1005F000C1F30A5640F4801543F48013A7EB0608B4
:10060000101BD64608F2FD3873EB050002D308F143
:10061000010801E092185B41B8F1000F03DA0020F5
:100620000146BDE8F08D00204FF480110646844657
:100630000EE0171B73EB050705D3121B63EB0503D5
:1006400006434CEA010C49084FEA300092185B411E
:1006500050EA0107EDD152EA030012D082EA040009
:1006600083EA0501084305D0101BAB4106D20122E5
:10067000002306E000224FF0004302E06FF0010289
:1006800053101AEB06004CEB085110EB0A0041EB3B
:100690000B01BDE8F04DFFF7C2BE70B521F000437D
:1006A00003430CD0C1F30A550024D5EB040564EBD9
:1006B0000403D617AD1AB34102DB0020014670BD1A
:1006C000201841EB025170BD30B5041E71F10004D9
:1006D00004DB4FF00044404264EB0101141E73F14F
:1006E000000405DB1C464FF00043524263EB040359
:1006F000994208BF904230BD064C074D06E0E068C5
:1007000040F0010394E8070098471034AC42F6D358
:10071000FFF722FD404A0008604A00082DE9F04D2D
:1007200000231A461B1A8A4103DB00200146BDE85C
:10073000F08DC1F30A52C1F3130141F480154FF05B
:10074000000BD10702D100186D41521E002704464C
:1007500040F2FF11384601EB620A3E4680460246EF
:1007600000204FF48011FFF740FDC2197141BB1802
:1007700046EB0100B4EB030C75EB000C04D3E41A58
:1007800065EB000517460E46241908F101006D417E
:1007900080463428E3DDF91946EB0600091BA84121
:1007A00003D24FF0FF32134601E0002213461BEB49
:1007B000070046EB0A51BDE8F04DFFF730BE0000E0
:1007C00010B5034800F03CFA024800F039FA10BDB9
:1007D000400000207000002070B50446002520680D
:1007E000806800F00100F0B12068806820F001000E
:1007F0002168886000F0E6FE05460EE000F0E2FEAB
:10080000401B022809D9A06A40F01000A062E06AEB
:1008100040F00100E062012070BD2068806800F0B7
:1008200001000028EAD10020F6E7000038B50446B0
:100830000025002000902068806800F0010080BB47
:100840002068806840F001002168886016480068D0
:100850001649B0FBF1F0009002E00098401E0090B5
:1008600000980028F9D100F0ADFE054613E000F035
:10087000A9FE401B02280ED9A06A40F01000A06219
:10088000E06A40F00100E06200BF002084F824002C
:1008900000BF012038BD2068806800F001000028FA
:1008A000E5D00020F6E700001400002040420F00D1
:1008B00000BFFEE77047000070B505460C46322DBC
:1008C00006D3322C04D311480560114804601CE0A3
:1008D00000200E4908600E49086000224FF4807124
:1008E0000C4800F069FE00224FF40071094800F046
:1008F00063FE00224FF48061064800F05DFE002296
:100900004FF40061034800F057FE70BD0000002066
:100910000400002000140140034B1860034B1960D1
:10092000034B1A6070470000180000201C000020D4
:100930002000002010B50020074908700748006813
:1009400000F014F80648006800F010F80548006848
:1009500001F03CFE10BD0000340000201800002013
:100960001C0000202000002070470000F8B504465D
:1009700000260020009000BF94F82400012801D137
:100980000220F8BD012084F8240000BF2046FFF7B4
:1009900023FF0646002E62D1A06A20F4885040F062
:1009A0000200A062022000F0E3FE30490968B1FBBA
:1009B000F0F04000009002E00098401E0090009887
:1009C0000028F9D12046FFF731FF2068806840F009
:1009D00008002168886000F0F5FD054611E000F090
:1009E000F1FD401B0A280CD9A06A20F0020040F05B
:1009F0001000A06200BF002084F8240000BF012086
:100A0000BFE72068806800F008000028E7D1206870
:100A1000806840F004002168886000F0D3FD05463E
:100A200011E000F0CFFD401B0A280CD9A06A20F08D
:100A3000020040F01000A06200BF002084F82400F3
:100A400000BF01209DE72068806800F004000028B6
:100A5000E7D1A06A20F0020040F00100A06200BFD0
:100A6000002084F8240000BF30468AE714000020EC
:100A70007047000038B5024600230020009000BFF8
:100A800092F82400012801D1022038BD012082F80B
:100A9000240000BF4868072812D21068406B0C7908
:100AA000641E04EB84051F24AC40A0430D796D1E29
:100AB00005EB85050C68AC4020431468606327E0B3
:100AC00048680D2812D21068006B0C79E41F04EB03
:100AD00084051F24AC40A0430D79ED1F05EB85056F
:100AE0000C68AC4020431468206311E01068C06AB1
:100AF0000C790D3C04EB84051F24AC40A0430D7918
:100B00000D3D05EB85050C68AC4020431468E062A0
:100B100008680A2812D31068C0680C780A3C04EBF5
:100B200044050724AC40A0430D780A3D05EB45057C
:100B30008C68AC4020431468E0600FE010680069E6
:100B40000C7804EB44050724AC40A0430D7805EB7A
:100B500045058C68AC402043146820610868102863
:100B600002D00868112827D1174C1068A0421ED166
:100B70001068806800F40000F0B91068806840F4E4
:100B800000001468A0600868102815D10F4800689C
:100B90000F4CB0FBF4F000EB80004000009002E04E
:100BA0000098401E009000980028F9D104E0906A57
:100BB00040F020009062012300BF002082F8240052
:100BC00000BF184661E70000002401401400002027
:100BD00040420F0010B504461149206809680968B1
:100BE000884209D10E48006800F026F80D490860D7
:100BF00002200D49087012E00C4920680968096854
:100C000088420CD10948006800F016F808490860CD
:100C1000044800680749086004200349087010BDB3
:100C20001800002024000020340000201C000020B8
:100C3000300000202C00002001460868C06C70477E
:100C400010B504462068406800F0200020282FD10D
:100C50002068006800F00200022829D1A06A00F094
:100C6000100018B9A06A40F40070A0622068806883
:100C700000F46020B0F5602F13D1E06888B92068D7
:100C8000406820F0200021684860A06A20F480704D
:100C9000A062A06A00F4805018B9A06A40F0010078
:100CA000A0622046FFF796FF6FF0120021680860EF
:100CB0002068406800F0800080283BD120680068F0
:100CC00000F00400042835D1A06A00F0100018B923
:100CD000A06A40F40050A0622068806800F4E04000
:100CE000B0F5E04F0DD02068406800F48060D0B9C6
:100CF0002068806800F46020B0F5602F13D1E068B0
:100D000088B92068406820F0800021684860A06AA7
:100D100020F48050A062A06A00F4807018B9A06A24
:100D200040F00100A0622046FFF7A2FE6FF00C0029
:100D3000216808602068406800F0400040280FD11A
:100D40002068006800F0010050B1A06A40F48030D3
:100D5000A062204600F0A8F86FF00100216808604A
:100D600010BD00002DE9F0410446002700250026B3
:100D7000A84614B90120BDE8F081A06810B16069EF
:100D800000B100BFA06A30B90020E06284F82400FE
:100D9000204600F08BF82046FFF71EFD0746A06AAC
:100DA00000F01000002873D1002F71D1A06A20F448
:100DB000885040F00200A062E16960680843E16881
:100DC00040EA41000643A068B0F5807F02D0A068E9
:100DD000012802D14FF4807000E0002005436069D3
:100DE000012811D1E06838B9A069401E4FF40061B4
:100DF00041EA4030054307E0A06A40F02000A062CD
:100E0000E06A40F00100E0622068406820F4694038
:100E100028432168486020688068214908403043A1
:100E200021688860A068B0F5807F02D0A0680128A2
:100E300002D14FF4807000E00020B0F5807F03D134
:100E4000208A401E4FEA00582068C06A20F47000D3
:100E500040EA08002168C86220688068114908409B
:100E6000B04208D10020E062A06A20F0020040F009
:100E70000100A06211E0A06A20F0020040F0100022
:100E8000A062E06A40F00100E062012705E0FFE7B0
:100E9000A06A40F01000A062012738466BE700000E
:100EA000FDF7E1FFFE0E1FFF7047000010B586B092
:100EB0000446002002900390049005903049206879
:100EC00088422BD100BF2F48806940F400702D4923
:100ED00088610846806900F40070019000BF00BF7F
:100EE00000BF0846806940F00800886108468069B4
:100EF00000F00800019000BF00BF01200290032015
:100F0000039002A9204800F0C9F9002211461220DE
:100F100000F0DBFB122000F0CBFB2EE01B49206829
:100F200088422AD100BF1748806940F48060154983
:100F300088610846806900F48060019000BF00BFAE
:100F400000BF0846806940F0080088610846806953
:100F500000F00800019000BF00BF022002900320B3
:100F6000039002A9084800F099F9002211461220C6
:100F700000F0ABFB122000F09BFB06B010BD0000A0
:100F80000024014000100240000C014000280140F4
:100F900070B50446002500BF94F82400012801D153
:100FA000022070BD012084F8240000BF2046FFF716
:100FB0003DFC0546002D7DD1A06A40F601618843C5
:100FC00040F48070A0623F492068884208D13E48C2
:100FD000006800F4702008B9012002E0002000E061
:100FE000012078B1A06A20F48010A06220684068D7
:100FF00000F4806000B3A06A20F4005040F48050F8
:10100000A06219E0A06A40F48010A0622E49091F76
:101010002068884203D02B492068884204D12A489E
:10102000006800F4806000E0002028B1A06A20F48D
:10103000005040F48050A062A06A00F4805020B1BB
:10104000E06A20F00600E06201E00020E06200BFFC
:10105000002084F8240000BFC01E216808602068BA
:10106000406840F02000216848602068806800F4F3
:101070006020B0F5602F16D112492068884208D14F
:101080001148006800F4702008B9012002E0002037
:1010900000E0012038B12068806840F4A000216899
:1010A00088600CE006E02068806840F480102168C9
:1010B000886004E000BF002084F8240000BF2846B8
:1010C0006FE70000002801400424014070B5044689
:1010D000002594F82100022803D00420A0630125F4
:1010E000C1E02068006820F00E00216808602068D8
:1010F000006820F00100216808605C49206888428F
:1011000052D95A4978392068884201D1012047E0F4
:10111000564964392068884201D1102040E0534983
:1011200050392068884201D1801539E04F493C3957
:101130002068884201D1801432E04C492839206867
:10114000884202D14FF480302AE04849143920689F
:10115000884202D14FF4801022E04449206888423E
:1011600001D140041CE042492068884201D101209D
:1011700016E03F4914312068884201D110200FE069
:101180003B4928312068884201D1801508E0384960
:101190003C312068884201D1801401E04FF4803056
:1011A0003349091F086051E0304978392068884286
:1011B00001D1012047E02D4964392068884201D1DE
:1011C000102040E0294950392068884201D180151B
:1011D00039E026493C392068884201D1801432E048
:1011E000224928392068884202D14FF480302AE011
:1011F0001E4914392068884202D14FF4801022E041
:101200001A492068884201D140041CE0184920682E
:10121000884201D1012016E0154914312068884226
:1012200001D110200FE0124928312068884201D1F5
:10123000801508E00E493C312068884201D18014B5
:1012400001E04FF48030094980394860012084F87A
:10125000210000BF002084F8200000BF606B10B1A7
:101260002046616B8847284670BD00008000024020
:101270000804024070B5044600F0A4F9064625466D
:10128000681C10B104480078054400BF00F09AF9CA
:10129000801BA842FAD370BD100000202DE9F8474A
:1012A00003460024002000258446002700226EE12A
:1012B0004FF0010808FA02F4D1F8008008EA0400AF
:1012C000A0427DD1DFF8D0A2D1F80480A8EB0A09B2
:1012D000D0453AD014DCB8F1030F50D009DCB8F196
:1012E000000F31D0B8F1010F1CD0B8F1020F49D175
:1012F00020E0B8F1110F18D0B8F1120F42D11EE062
:10130000B9F5881F25D006DCB9F5803F20D0B9F5A6
:10131000801F37D11AE0B9F5001F18D0B9F5041FA6
:1013200030D117E0D1F80CC02DE0D1F80C8008F1D5
:10133000040C28E0D1F80C8008F1080C23E0D1F867
:101340000C8008F10C0C1EE000BF00BF00BF00BF06
:1013500000BF00BFD1F80880B8F1000F02D14FF0F4
:10136000040C0BE0D1F80880B8F1010F03D14FF065
:10137000080C1C6102E04FF0080C5C6103E04FF0C8
:10138000000C00E000BF00BFFF2801D8984601E034
:1013900003F104084646FF2802D84FEA820803E01A
:1013A000A2F108084FEA88084746D6F800804FF0B7
:1013B0000F0909FA07F928EA09080CFA07F900E009
:1013C00088E048EA0908C6F80080D1F8048008F0EF
:1013D0008058B8F1805F7DD100BFDFF8C081D8F8B8
:1013E000188048F00108DFF8B491C9F81880C846A1
:1013F000D8F8188008F00108CDF8008000BF00BFC1
:101400004FEAB9384FEA920958F829504FEA8278E2
:101410004FEA18794FF00F0808FA09F825EA08058D
:10142000DFF87C81434502D14FF0000816E0DFF879
:101430007481434502D14FF001080FE0DFF8688165
:10144000434502D14FF0020808E0DFF860814345D0
:1014500002D14FF0030801E04FF004084FEA82790F
:101460004FEA197908FA09F848EA0505DFF84081DA
:101470004FEA920948F82950D1F8048008F48038DE
:10148000B8F5803F0AD1DFF82C81D8F8008048EA0F
:101490000008DFF82091C9F8008009E0DFF8148126
:1014A000D8F8008028EA0008DFF80891C9F8008021
:1014B000D1F8048008F40038B8F5003F10D1DFF807
:1014C000F48008F10408D8F8008048EA0008DFF842
:1014D000E49000E05AE009F10409C9F800800DE049
:1014E000DFF8D08008F10408D8F8008028EA000866
:1014F000DFF8C09009F10409C9F80080D1F8048030
:1015000008F48018B8F5801F0ED1DFF8A88008F124
:101510000808D8F8008048EA0008DFF8989009F138
:101520000809C9F800800DE0DFF8888008F1080894
:10153000D8F8008028EA0008DFF8789009F1080957
:10154000C9F80080D1F8048008F40018B8F5001F2D
:101550000ED1DFF8608008F10C08D8F8008048EA66
:101560000008DFF8509009F10C09C9F800800DE07F
:10157000DFF8408008F10C08D8F8008028EA00085D
:10158000DFF8309009F10C09C9F80080521C102ACC
:10159000FFF48EAEBDE8F887000011100010024085
:1015A00000080140000C01400010014000140140FF
:1015B00008000140000401400AB1016101E00B0490
:1015C0000361704701480068704700000800002070
:1015D00003480068034909780844014908607047D6
:1015E000080000201000002010B50848006840F0F6
:1015F000100006490860032000F0A6F8002000F063
:1016000007F800F02BF8002010BD00000020024079
:1016100070B504460E4800784FF47A71B1FBF0F0D3
:101620000C490968B1FBF0F5284600F007FF08B146
:10163000012070BD102C07D200222146501E00F060
:1016400044F80548046001E00120F2E70020F0E7DB
:1016500010000020140000200C00002008B500BF7E
:101660001148806940F001000F498861084680698F
:1016700000F00100009000BF00BF00BF0846C06935
:1016800040F08050C8610846C06900F0805000906A
:1016900000BF00BF00BF0549486820F0E06040F08F
:1016A0000070486000BF08BD00100240000001400B
:1016B00000BF00F01F02012191404209920002F197
:1016C000E022C2F8001100BF70472DE9F05F8046AC
:1016D0000D461646002701F07FFE074639462A468A
:1016E000334601F00700C0F1070ABAF1040F02D92E
:1016F0004FF0040A01E0C0F1070AD14600F1040AE4
:10170000BAF1070F02D24FF0000A01E0A0F1030A7C
:10171000D4464FF0010A0AFA09FAAAF1010A0AEAC4
:10172000020A0AFA0CFA4FF0010B0BFA0CFBABF1B0
:10173000010B0BEA030B4AEA0B042146404601F079
:1017400053FEBDE8F09F000000BF00F00702064B0B
:1017500019684FF6FF031940044B0B4343EA02217B
:10176000014B196000BF70470CED00E00000FA0566
:101770002DE9F04F89B080467DA1D1E90023D1E960
:101780000201CDE90523CDE907017DA3D3E90020BE
:10179000D3E9021302AC0BC401924FF000090025FB
:1017A0000026AB46AA460027002400200090B8F18E
:1017B000040F59D006DCB8F1010F76D0B8F1020F52
:1017C00074D1C2E0B8F1080F72D0B8F1100FF7D1A0
:1017D0006F484468006800F08070002843D005A876
:1017E000C4F38341465C04F4803058B36848C06A4F
:1017F00000F00F0001A911F800906548C06A00F4DC
:101800008030A0B16248C06AC0F30310471C604832
:10181000C06AC0F3032000F1020B5E48B0FBF7F092
:1018200000FB0BF0B0FBF9F000FB06F504E05948B3
:10183000B0FBF9F000FB06F59DF82100B04204D1A1
:101840006D0802E0544806FB00F55148406800F47A
:101850008000B0F5800F01D1009504E068000321FD
:10186000B0FBF1F000907DE04948C06A00F4003020
:1018700018B900F0ABFA009016E04548006800F097
:10188000805088B14248C06AC0F30310471C4048EA
:10189000C06AC0F3033000F1020A3E48B0FBF7F023
:1018A00000FB0AF0400000905CE022E059E0FFE716
:1018B0003748C06A00F4802018B900F087FA009019
:1018C00016E03348006800F0805088B13048C06AA4
:1018D000C0F30310471C2E48C06AC0F3033000F168
:1018E000020A2C48B0FBF7F000FB0AF04000009021
:1018F00038E02748046A04F44070B0F5807F06D1D0
:1019000004F0020018B14FF4004000901CE004F411
:101910004070B0F5007F08D11D48406A00F0020019
:1019200018B149F6404000900EE004F44070B0F564
:10193000407F07D11648006800F4003010B1174806
:10194000009001E0002000900CE000F02FFA104918
:101950004968C1F38131491C4900B0FBF1F00090A6
:1019600000E000BF00BF009809B0BDE8F08F0000A4
:10197000000004050607080900000000000D000033
:101980000102030405060708090A0B0C0D0E0F10CF
:101990000010024040787D0100093D00F0FA02008D
:1019A0002DE9F8430446002600250027207800F0A2
:1019B000010000286ED0A8467948C06900F0805028
:1019C00078B900BF7648C06940F080507449C8615A
:1019D0000846C06900F08050009000BF00BF4FF083
:1019E00001087048006800F48070B8B96D4800685C
:1019F00040F480706B490860FFF7E4FD064607E09D
:101A0000FFF7E0FD801B642802D90320BDE8F883BE
:101A10006448006800F480700028F1D06048006AD3
:101A200000F440752DB3A08800F44070A84220D087
:101A30005B48006A20F4407501205B490860002083
:101A400008605748056205F0010090B1FFF7BAFD44
:101A5000064608E0FFF7B6FD801B41F28831884258
:101A600001D90320D2E74E48006A00F002000028A6
:101A7000F0D04B48006A20F4407061680843484940
:101A80000862B8F1010F04D10846C06920F0805007
:101A9000C86100BF207800F00200022807D140484A
:101AA000406820F44040A16808433D4948602078E0
:101AB00000F00400042807D13948C06A20F400303F
:101AC000E16808433649C862207800F00800082819
:101AD00007D13348C06A20F4802021690843304987
:101AE000C8622F48C06A00F4003020B92C48C06A90
:101AF00000F4802000B10127012F41D1284800685F
:101B000000F0805090BB2648006800F0806040B133
:101B10002348C06A00F0F001A069814201D0012091
:101B200074E71F48C06A20F0F000A16908431C490F
:101B3000C8620846C06A20F47040616908431849C9
:101B4000C862012019490867FFF73CFD064606E018
:101B5000FFF738FD801B642801D9032056E71048A1
:101B6000006800F000500028F2D009E0FFE70C48C0
:101B7000C06A00F470406169884201D0012045E7E5
:101B8000207800F01000102807D10548406820F4A4
:101B90008000E169084302494860002036E7000000
:101BA00000100240007000404004424200004242E7
:101BB00070B504460D4600266D48006800F0070029
:101BC000A8420ED26A48006820F0070028436849FE
:101BD00008600846006800F00700A84201D0012014
:101BE00070BD207800F0020002281DD1207800F09E
:101BF0000400042805D15F48406840F4E0605D4976
:101C00004860207800F00800082805D1594840684D
:101C100040F46050574948605648406820F0F00052
:101C2000A168084353494860207800F0010000286B
:101C30005DD06068012806D14E48006800F400308D
:101C400090B90120CCE76068022806D149480068B5
:101C500000F0007040B90120C2E74648006800F07B
:101C6000020008B90120BBE74248406820F00300A9
:101C7000616808433F494860FFF7A4FC0646606876
:101C8000012810D108E0FFF79DFC801B41F288314C
:101C9000884201D90320A3E73648406800F00C00D1
:101CA0000428F0D123E06068022810D108E0FFF793
:101CB00089FC801B41F28831884201D903208FE7DB
:101CC0002C48406800F00C000828F0D10FE008E034
:101CD000FFF778FC801B41F28831884201D903204C
:101CE0007EE72448406800F00C000028F0D120482E
:101CF000006800F00700A8420ED91D48006820F0D7
:101D0000070028431A4908600846006800F00700E9
:101D1000A84201D0012063E7207800F004000428E5
:101D200007D11448406820F4E060E1680843114995
:101D30004860207800F00800082808D10D48406865
:101D400020F46050216940EAC1000A49486000F06F
:101D50003DF808494968C1F30311074A515CC8407E
:101D6000064908600020FFF753FC002038E7000018
:101D70000020024000100240944900081400002096
:101D800001480068704700001400002000B5FFF70C
:101D9000F7FF04494968C1F30221034A515CC84076
:101DA00000BD000000100240A449000800B5FFF784
:101DB000E7FF04494968C1F3C221034A515CC840A6
:101DC00000BD000000100240A44900082DE9F04FBA
:101DD0008BB03CA2D2E901311068D268CDE908315C
:101DE0000A9207903BA3D3E90020D3E9021304AC85
:101DF0000BC403924FF00009CB46CA4600240020D2
:101E00000290019000903748D0F8049009F00C003F
:101E100000284FD0042802D008284AD102E03248D6
:101E200002904AE007A8C9F38341445C09F480307A
:101E3000C0B32C48C06A00F00F0003A911F800B02D
:101E40002848C06A00F4803008B32648C06AC0F34E
:101E50000310401C01902348C06AC0F30320801C7B
:101E600000900198A0FB0B5006461F490098A1FB6B
:101E700000210023A2FB047C01FB04C102FB03112F
:101E80002A4633463846FEF77FF9824603E0164875
:101E90006043B0FBFBFA9DF82900A04206D14FEA4F
:101EA0005A0A03E0FFE7114804FB00FACDF808A046
:101EB00003E000BF0E48029000BF00BF02980BB0C5
:101EC000BDE8F08F000004050607080900000000C7
:101ED000000D00000102030405060708090A0B0CA7
:101EE0000D0E0F100010024040787D0100093D00EA
:101EF00000127A00F8B504460025207800F00100B1
:101F0000002878D0FD48406800F00C0004280CD070
:101F1000FA48406800F00C00082811D1F7484068E2
:101F200000F48030B0F5803F0AD1F448006800F436
:101F3000003000285FD0A06800285CD10120F8BDE7
:101F400000BFA068B0F5803F06D1EC48006840F4BF
:101F50008030EA49086028E0A06858B9E74800687E
:101F600020F48030E54908600846006820F48020AD
:101F700008601AE0A068B0F5A02F0BD1DF48006818
:101F800040F48020DD4908600846006840F4803055
:101F900008600AE0D948006820F48030D74908601A
:101FA0000846006820F48020086000BFA06888B15F
:101FB000FFF708FB054606E0FFF704FB401B64281B
:101FC00001D90320BBE7CD48006800F400300028A9
:101FD000F2D010E0FFF7F6FA054606E0FFF7F2FA56
:101FE000401B642801D90320A9E7C448006800F415
:101FF00000300028F2D1207800F00200022857D1EA
:10200000BE48406800F00C0050B1BC48406800F089
:102010000C00082818D1B948406800F4803098B9FD
:10202000B648006800F0020020B16069012801D0C4
:10203000012084E7B148006820F0F800A16940EA77
:10204000C100AE49086033E06069E8B10120AC49E5
:102050000860FFF7B7FA054606E0FFF7B3FA401B42
:10206000022801D903206AE7A448006800F00200B2
:102070000028F2D0A148006820F0F800A16940EAE9
:10208000C1009E49086013E000209D490860FFF7E9
:1020900099FA054606E0FFF795FA401B022801D998
:1020A00003204CE79548006800F002000028F2D1B8
:1020B000207800F0080008282DD1E069B8B101208F
:1020C00090490860FFF77EFA054606E0FFF77AFAC6
:1020D000401B022801D9032031E78848406A00F0FC
:1020E00002000028F2D0012001F094F913E0002052
:1020F00084490860FFF766FA054606E0FFF762FAD2
:10210000401B022801D9032019E77C48406A00F0EF
:1021100002000028F2D1207800F00400042873D1D6
:1021200000267648C06900F0805070B900BF73483F
:10213000C06940F080507149C8610846C06900F02C
:102140008050009000BF00BF01266F48006800F477
:102150008070B0B96C48006840F480706A490860CB
:10216000FFF730FA054606E0FFF72CFA401B64281B
:1021700001D90320E3E66448006800F48070002879
:10218000F2D000BF2069012806D15C48006A40F007
:1021900001005A49086227E0206958B95748006A87
:1021A00020F00100554908620846006A20F004004A
:1021B000086219E0206905280BD15048006A40F0F8
:1021C00004004E4908620846006A40F001000862B7
:1021D0000AE04A48006A20F00100484908620846BF
:1021E000006A20F00400086200BF2069A0B1FFF778
:1021F000E9F9054609E0FFF7E5F9401B41F28831AE
:10220000884202D903209AE622E03C48006A00F0A6
:1022100002000028EFD012E0FFF7D4F9054608E0ED
:10222000FFF7D0F9401B41F28831884201D90320E1
:1022300085E63248006A00F002000028F0D1012E45
:1022400005D12E48C06920F080502C49C86100BFDC
:10225000E06AA0B32948406800F48030B0F5803FC0
:102260000ED12648406800F00C00082808D1234809
:10227000C06A00F48030B0F5803F01D101205EE6F5
:10228000E06A022850D11D48006800F0805040B13B
:102290001A48C06A00F0F001606B814201D0012051
:1022A0004DE6002016498866FFF78CF9054607E0E1
:1022B000FFF788F9401B642802D903203FE64DE070
:1022C0000E48006800F000600028F1D10B48C06A99
:1022D00020F0F000616B08430849C8620846C06AF4
:1022E00020F47060216B08430449C862012004494E
:1022F0008866FFF767F905460FE00000001002400E
:10230000000042428004424200700040FFF75AF948
:10231000401B642801D9032011E64648006800F0FC
:1023200000600028F2D019E04248C06A20F48030F2
:102330004049C862002040498866FFF743F90546D6
:1023400006E0FFF73FF9401B642801D90320F6E5BA
:102350003848006800F000600028F2D1206AE0B33D
:102360003448406800F00C0008285ED0206A02283B
:1023700046D1002030490866FFF724F9054606E0FB
:10238000FFF720F9401B022801D90320D7E529488F
:10239000006800F000700028F2D1606AB0F5803F5C
:1023A0000DD12448C06A616808432249C8620846C2
:1023B000C06A20F00F00E16808431E49C862D4E9F2
:1023C000090108431B49496821F47411084319495C
:1023D000486001201849086600E028E0FFF7F2F89D
:1023E000054606E0FFF7EEF8401B022801D903205E
:1023F000A5E51048006800F000700028F2D016E053
:1024000000200D490866FFF7DDF8054606E0FFF7F6
:10241000D9F8401B022801D9032090E5054800683F
:1024200000F000700028F2D101E0012087E50020D3
:1024300085E50000001002400000424270B50446ED
:102440002546681EB0F1807F01D301200FE0681E91
:102450004FF0E02148610F214FF0FF3000F0C4FF42
:1024600000204FF0E021886107200861002070BD46
:102470007047704710B50346002200BF93F83C0038
:10248000012801D1022010BD012083F83C0000BFCB
:1024900022F0FF00CC6840EA040222F440708C680D
:1024A00040EA040222F480604C6840EA040222F40C
:1024B00000600C6840EA040222F480500C6940EA93
:1024C000040222F400504C6940EA040222F48040E5
:1024D0008C6940EA040222F400408C6940EA04025C
:1024E0001868426400BF002083F83C0000BF00BFB2
:1024F000C9E7024600BF92F83C00012801D1022042
:102500007047012082F83C0000BF022082F83D00A5
:102510001068406820F070001368586010684068C8
:102520000B681843136858601068806820F08000BA
:1025300013689860106880684B6818431368986047
:10254000012082F83D0000BF002082F83C0000BF5F
:1025500000BFD5E710B504460CB9012010BD94F8B2
:102560003D0028B9002084F83C00204600F00CF81B
:10257000022084F83D00211D206800F0EDFF0120BD
:1025800084F83D000020E9E738B504460D4920688D
:10259000884215D100BF0C48C06940F010000A49BC
:1025A000C8610846C06900F01000009000BF00BF7D
:1025B000002211463620FFF788F83620FFF778F81A
:1025C00038BD0000001000400010024001460868BD
:1025D000C06840F001000A68D0600868006840F0F8
:1025E00001000A68106000207047704710B504466B
:1025F00020680069C0F34000D8B12068C068C0F30B
:102600004000B0B16FF0020021680861012020771E
:102610002068806900F0030018B12046FFF7E5FF4D
:1026200005E0204600F0E8F8204600F09DF9002083
:10263000207720680069C0F38000D8B12068C068A6
:10264000C0F38000B0B16FF004002168086102207F
:1026500020772068806900F4407018B12046FFF7A9
:10266000C4FF05E0204600F0C7F8204600F07CF9E2
:102670000020207720680069C0F3C000D8B120682E
:10268000C068C0F3C000B0B16FF0080021680861F5
:10269000042020772068C06900F0030018B12046AC
:1026A000FFF7A3FF05E0204600F0A6F8204600F063
:1026B0005BF90020207720680069C0F30010D8B1D2
:1026C0002068C068C0F30010B0B16FF0100021683E
:1026D0000861082020772068C06900F4407018B1B4
:1026E0002046FFF782FF05E0204600F085F82046EF
:1026F00000F03AF9002020772068006900F001001E
:1027000058B12068C06800F0010030B16FF00100DE
:1027100021680861204600F049F920680069C0F38B
:10272000C01058B12068C068C0F3C01030B16FF05D
:102730008000216808612046FFF79AFE2068006942
:10274000C0F3801058B12068C068C0F3801030B169
:102750006FF0400021680861204600F07BF9206896
:102760000069C0F3401058B12068C068C0F3401041
:1027700030B16FF02000216808612046FFF779FE34
:1027800010BD000010B586B00446002002900390F2
:102790000490059014492068884222D100BF134854
:1027A000806940F04000114988610846806900F066
:1027B0004000019000BF00BF4FF480400290022013
:1027C0000390059002A90A48FEF768FD00BF094979
:1027D000486820F0C00040F0E06040F0C000486071
:1027E00000BF06B010BD0000002C014000100240E8
:1027F0000018014000000140704770B504460D46C6
:10280000164600BF94F83C00012801D1022070BD9B
:10281000012084F83C0000BF022084F83D0036B15E
:10282000042E1BD0082E31D00C2E5ED145E0294657
:10283000206800F0E1FE2068806940F0080021680F
:1028400088612068806920F0040021688861206820
:102850008069296908432168886147E02946206822
:1028600000F0FCFE2068806940F400602168886107
:102870002068806920F48060216888612068806910
:10288000296940EA0120216888612FE029462068F3
:1028900000F01CFF2068C06940F008002168C86192
:1028A0002068C06920F004002168C8612068C06900
:1028B000296908432168C86118E02946206800F0AA
:1028C0003BFF2068C06940F400602168C86120684F
:1028D000C06920F480602168C8612068C0692969E6
:1028E00040EA01202168C86100E000BF00BF01206C
:1028F00084F83D0000BF002084F83C0000BF00BF0A
:1029000085E710B504460CB9012010BD94F83D00D0
:1029100028B9002084F83C00204600F00DF8022081
:1029200084F83D00211D206800F016FE012084F887
:102930003D000020E9E7000008B5094A016891421E
:102940000DD100BF0749896941F40061054A9161D1
:102950001146896901F40061009100BF00BF08BD04
:10296000002C0140001002407047000030B50446C2
:102970000D4601222946206800F030FE0A492068F1
:10298000884201D1012000E0002028B12068406C7D
:1029900040F40040216848642068006840F001006D
:1029A00021680860002030BD002C014010B50446AD
:1029B0002248007806283DD2DFE800F003121A29E9
:1029C000313B01201D490870012201021C48FEF71D
:1029D000F3FD00224FF400711948FEF7EDFD2AE0E7
:1029E00005201649087017480068FEF7D1FA22E062
:1029F00003201249087000224FF480711048FEF73E
:102A0000DBFD012251020E48FEF7D6FD13E0052042
:102A10000A4908700C480068FEF7BAFA0BE000207B
:102A2000064908700948016809480068FDF744FF35
:102A300001E000E000BF00BF10BD00003400002036
:102A4000000C0140180000201C0000203000002075
:102A50002C000020704770472DE9F047044620689D
:102A600005682068C668206847694FF00008C146BD
:102A700005F00F08B8F1000F0AD105F0200038B1B9
:102A800006F0200020B1204600F0A8FEBDE8F08747
:102A9000B8F1000F6DD007F0010018B906F490707E
:102AA000002866D005F0010030B106F4807018B13E
:102AB000E06B40F00100E06305F0040030B107F086
:102AC000010018B1E06B40F00200E06305F0020085
:102AD00030B107F0010018B1E06B40F00400E06392
:102AE00005F0080030B107F0010018B1E06B40F0CC
:102AF0000800E063E06B68B305F0200028B106F041
:102B0000200010B1204600F069FE20684069C0F343
:102B10008019E06B00F0080010B9B9F1000F22D065
:102B2000204600F03BFE2068406900F04000B0B154
:102B30002068406920F0400021684861606B50B116
:102B40001748616B4863606BFEF7C0FA10B1606BA9
:102B5000416B88470CE02046FFF77DFF08E02046E8
:102B6000FFF779FF04E02046FFF775FF0020E063E0
:102B70008CE705F0800030B106F0800018B12046E7
:102B800000F064FF82E705F0400030B106F040003D
:102B900018B1204600F012FE78E700BF76E700008B
:102BA0008937000810B504460CB9012010BDA06992
:102BB00000B100E000BF94F8390028B9002084F883
:102BC0003800204600F028F8242084F839002068D6
:102BD000C06820F400502168C860204600F052FE12
:102BE0002068006920F490402168086120684069ED
:102BF00020F02A00216848612068C06840F4005035
:102C00002168C8600020E063202084F8390084F83F
:102C10003A000020CAE7000010B586B00446002044
:102C200002900390049005901E492068884236D196
:102C300000BF1D48806940F480401B4988610846F8
:102C4000806900F48040019000BF00BF00BF0846CB
:102C5000806940F0040088610846806900F0040043
:102C6000019000BF00BF481502900220039003208E
:102C7000059002A90D48FEF711FB4FF48060029009
:102C800000200390049002A90848FEF707FB0022E9
:102C900011462520FEF719FD2520FEF709FD06B097
:102CA00010BD000000380140001002400008014043
:102CB00010B5034693F83A0020282FD101B10AB984
:102CC000012010BD00BF93F83800012801D1022077
:102CD000F7E7012083F8380000BF99629A85DA850A
:102CE0000020D863222083F83A0000BF002083F838
:102CF000380000BF1868C06840F480701C68E0604D
:102D00001868406940F001001C6860611868C0687C
:102D100040F020001C68E0600020D2E70220D0E7ED
:102D20007047704700BFFEE710B50122110202484C
:102D3000FEF742FC10BD00000018014010B5FFF77F
:102D4000F3FF00F009F900F021F9012000F07CF90F
:102D50004FF47A70FEF78EFACB2000F075F9392027
:102D600000F09EF92C2000F09BF9002000F098F96B
:102D7000342000F095F9022000F092F9CF2000F005
:102D800063F9002000F08CF9832000F089F93020ED
:102D900000F086F9E82000F057F9852000F080F96E
:102DA000012000F07DF9792000F07AF9EA2000F0A6
:102DB0004BF9002000F074F9002000F071F9ED20CB
:102DC00000F042F9642000F06BF9032000F068F98C
:102DD000122000F065F9812000F062F9F72000F080
:102DE00033F9202000F05CF9C02000F02DF92620F6
:102DF00000F056F9C12000F027F9112000F050F939
:102E0000C52000F021F9352000F04AF93E2000F0FD
:102E100047F9C72000F018F9BE2000F041F936202C
:102E200000F012F9482000F03BF93A2000F00CF9CC
:102E3000552000F035F9B12000F006F9002000F02F
:102E40002FF91B2000F02CF9B62000F0FDF80A2025
:102E500000F026F9822000F023F9272000F020F965
:102E6000002000F01DF9F22000F0EEF8082000F03C
:102E700017F9262000F0E8F8012000F011F9E02011
:102E800000F0E2F81F2000F00BF91A2000F008F91A
:102E9000182000F005F90A2000F002F90F2000F0D8
:102EA000FFF8062000F0FCF8452000F0F9F8872034
:102EB00000F0F6F8322000F0F3F80A2000F0F0F805
:102EC000072000F0EDF8022000F0EAF8072000F0FB
:102ED000E7F8052000F0E4F8002000F0E1F8E12038
:102EE00000F0B2F8002000F0DBF8252000F0D8F860
:102EF000272000F0D5F8052000F0D2F8102000F0CF
:102F0000CFF8092000F0CCF83A2000F0C9F878207A
:102F100000F0C6F84D2000F0C3F8052000F0C0F81E
:102F2000182000F0BDF80D2000F0BAF8382000F0AD
:102F3000B7F83A2000F0B4F81F2000F0B1F81120E3
:102F400000F082F87820FEF795F9292000F07CF84F
:102F5000012000F035F810BD10B5012291020A4899
:102F6000FEF72AFB00224FF400410748FEF724FB3E
:102F70000122D1030448FEF71FFB0122D1020248BF
:102F8000FEF71AFB10BD00000018014010B5012229
:102F900011020A48FEF710FBC820FEF76BF9002269
:102FA0004FF400410548FEF707FBC820FEF762F921
:102FB000012211020148FEF7FFFA10BD001801407E
:102FC00070B504462546362000F03EF80120FEF795
:102FD00051F935B1012D0FD0022D18D0032D2CD170
:102FE00020E0482000F05CF8F020154908804FF4FC
:102FF000A0701449088021E0282000F051F84FF417
:10300000A0700F490880F0200E49088016E0882043
:1030100000F046F8F0200A4908804FF4A0700949F2
:1030200008800BE0E82000F03BF84FF4A070044962
:103030000880F0200349088000E000BF00BF70BD99
:10304000380000203600002070B5044625460022D6
:103050004FF400411148FEF7AFFA00224FF48051BF
:103060000E48FEF7A9FAE8436FF07F4101EA0040FD
:10307000E9B208430949103108600022C914074821
:10308000FEF79AFA0122D1020448FEF795FA0122CE
:10309000D1030248FEF790FA70BD0000001801400D
:1030A00070B50446254600224FF400411048FEF753
:1030B00083FA012211030E48FEF77EFAE8436FF00F
:1030C0007F4101EA0040E9B2084309491031086034
:1030D0000022C9140648FEF76FFA0122D102044803
:1030E000FEF76AFA0122D1030148FEF765FA70BDC6
:1030F000001801400EB50020009001900290124887
:1031000012490860002111488160C16041614FF49B
:103110006021C16100200D49486001210B48016117
:10312000FDF720FE08B1FDF71FFC082000900120EC
:1031300001900020029069460448FDF79BFC08B10D
:10314000FDF712FC0EBD00000024014040000020ED
:103150000EB50020009001900290124812490860BC
:10316000002111488160C16041614FF46021C1615B
:1031700000200D49486001210B480161FDF7F2FD77
:1031800008B1FDF7F1FB092000900120019000201B
:10319000029069460448FDF76DFC08B1FDF7E4FBB9
:1031A0000EBD0000002801407000002000B585B071
:1031B0000020019002900390049000BF3448806981
:1031C00040F01000324988610846806900F0100024
:1031D000009000BF00BF00BF0846806940F00800B3
:1031E00088610846806900F00800009000BF00BFB9
:1031F00000BF0846806940F0400088610846806949
:1032000000F04000009000BF00BF00BF084680698A
:1032100040F0200088610846806900F0200000909E
:1032200000BF00BF00BF0846806940F0040088610D
:103230000846806900F00400009000BF00BF002233
:103240004FF470611348FEF7B7F900224FF4407154
:103250001148FEF7B1F94FF470600190012002901F
:10326000002003900220049001A90A48FEF716F8F6
:103270004FF4407001900120029000200390022042
:10328000049001A90448FEF709F805B000BD00004C
:103290000010024000140140000C014000B591B044
:1032A00000200F9010901C2108A8FCF7B5FF1C21EE
:1032B00001A8FCF7B1FF23482349086015204860A6
:1032C0000021214881604FF6FF71C160002101613A
:1032D00041618161FFF715FB08B1FDF745FB002057
:1032E0000F9010900FA91848FFF703F908B1FDF7E8
:1032F0003BFB602008903220099000200A900C903F
:103300000D900E900C2208A90F48FFF776FA08B12D
:10331000FDF72AFB00200190029003900490059095
:103320004FF4005006900020079001A90648FFF7CF
:10333000A1F808B1FDF718FB0348FFF723FA11B015
:1033400000BD0000002C0140A00000201CB50020A2
:10335000009001900E480F4908600F20486000213E
:103360000C4881604FF6FF71C16000218161FFF759
:10337000F1F808B1FDF7F8FA0020009001906946D5
:103380000448FFF7B6F808B1FDF7EEFA1CBD0000DF
:1033900000100040E000002010B50B480B49086009
:1033A0004FF416504860002108488160C1600161F7
:1033B0000C21416100218161C161FFF7F3FB08B17C
:1033C000FDF7D2FA10BD00000038014020010020B6
:1033D00000BFFEE77047000002480068C0F302200B
:1033E000704700000CED00E010B5002807DA0A076E
:1033F000140E054A00F00F031B1FD45403E00A0704
:10340000130E024A135410BD18ED00E000E400E072
:103410007047000008B508490968C9084FF47A7276
:10342000B1FBF2F14143009100BF00BF00994A1E79
:1034300000920029F9D108BD14000020704710B592
:10344000FEF7C6F810BD000000B59BB038210DA8EE
:10345000FCF7E2FE142108A8FCF7DEFE20216846F6
:10346000FCF7DAFE01200D9000040F90042010906C
:103470000120129000040E9002201590C1031691B5
:103480004FF4E011179118904FF4C0611991402149
:103490001A910DA8FEF72EFD08B1FDF765FA0F2071
:1034A00008900220099000200A904FF480600B9051
:1034B00000200C90022108A8FEF77AFB08B1FDF766
:1034C00053FA02200090800302906846FEF768FAE3
:1034D00008B1FDF749FA0120014908671BB000BD9A
:1034E000000042421448006840F0010012490860A0
:1034F00008464068114908400F494860084600687E
:103500000F4908400C4908600846006820F48020F4
:1035100008600846406820F4FE00486008460068DD
:1035200020F0A05008604FF47F0088600020C8623F
:10353000C803044908607047001002400000FFF013
:10354000FFFFF6FE08ED00E010B50248FFF74EF869
:1035500010BD0000E0000020002202681B4B9842D2
:103560000BD0B0F1804F08D0194B984205D0194BC1
:10357000984202D0184B984203D122F070024B6857
:103580001A43124B98420BD0B0F1804F08D0104B29
:10359000984205D00F4B984202D00F4B984203D16E
:1035A00022F44072CB681A4322F080024B691A431E
:1035B00002608B68C3620B688362044B984201D13E
:1035C0000B6903630123436170470000002C014035
:1035D0000004004000080040000C004030B500230B
:1035E000012404FA01F3046A9C430462046A02FAA7
:1035F00001F52C43046230BD30B5002400220023C5
:10360000056A25F001050562026A4368846924F0B1
:10361000700424F003040D682C4322F002028D682C
:103620002A430D4DA84206D100BF22F00802CD6802
:103630002A4322F00402084DA84207D123F48073E4
:1036400023F400734D692B438D692B4343608461E0
:103650004D684563026230BD002C014030B5002446
:1036600000220023056A25F010050562026A4368FE
:10367000846924F4E04424F440740D6844EA052489
:1036800022F020028D6842EA05120F4DA84207D1B0
:1036900000BF22F08002CD6842EA051222F040020B
:1036A000094DA84209D123F4806323F400634D69D6
:1036B00043EA85038D6943EA8503436084614D686D
:1036C0008563026230BD0000002C014030B500244B
:1036D00000220023056A25F480750562026A4368AA
:1036E000C46924F0700424F003040D682C4322F410
:1036F00000728D6842EA05220E4DA84207D100BF34
:1037000022F40062CD6842EA052222F48062094D6B
:10371000A84209D123F4805323F400534D6943EAAE
:1037200005138D6943EA05134360C4614D68C563A1
:10373000026230BD002C014030B50022002300247D
:10374000056A25F480550562036A4468C26922F45B
:10375000E04222F440720D6842EA052223F400534D
:103760008D6843EA0533074DA84204D124F4804410
:103770004D6944EA85144460C2614D680564036282
:1037800030BD0000002C014070B505466C6A002079
:10379000E085E0842046FFF75EF970BD0168C968E6
:1037A00021F490710268D1600168496921F001013A
:1037B00002685161202180F83A10704710B5044624
:1037C0002068C06820F040002168C860202084F88C
:1037D00039002046FFF7A5FA002010BD70B5044659
:1037E00094F83A0022284AD1A068B0F5805F13D13E
:1037F000A56A206940B920684068C0F308002880A5
:10380000A06A801CA06219E020684068C0B22880CD
:10381000A06A401CA06211E0206938B920684068A5
:10382000C1B2A26A501CA062117007E02068406813
:1038300000F07F01A26A501CA0621170E08D401E52
:1038400080B2E085C8B92068C06820F020002168F7
:10385000C8602068C06820F480702168C860206853
:10386000406920F0010021684861202084F83A0076
:103870002046FFF755FA002070BD0020FCE702202B
:10388000FAE700002DE9F0410446002520680069B0
:1038900020F44050E1680843216808612169A0686C
:1038A00008436169084305432068C06841F20C6120
:1038B000884328432168C8602068406920F440702C
:1038C000A1690843216848615F49206888425CD14A
:1038D000FEF76CFA00EBC00101EB00106168890093
:1038E000B0FBF1F6FEF762FA00EBC00101EB00104D
:1038F00061688900B0FBF1F06421B0FBF1F000EBEE
:10390000C00101EB0010A6EB8000322101EB00109A
:103910006421B0FBF1F000F0F006FEF747FA00EB8F
:10392000C00101EB001061688900B0FBF1F0642177
:10393000B0FBF1F006EB0016FEF738FA00EBC00121
:1039400001EB001061688900B0FBF1F7FEF72EFA79
:1039500000EBC00101EB001061688900B0FBF1F0E1
:103960006421B0FBF1F000EBC00101EB0010A7EB0C
:103970008000322101EB00106421B0FBF1F000F077
:103980000F003044216888605BE0FEF7FFF900EB30
:10399000C00101EB001061688900B0FBF1F6FEF791
:1039A000F5F900EBC00101EB001061688900B0FB84
:1039B000F1F06421B0FBF1F000EBC00101EB00106D
:1039C000A6EB8000322101EB00106421B0FBF1F086
:1039D00000F0F006FEF7DAF900EBC00101EB001091
:1039E00061688900B0FBF1F06421B0FBF1F006EBF7
:1039F0000016FEF7CBF900EBC00101EB0010616887
:103A00008900B0FBF1F7FEF7C1F900EBC00101EB53
:103A1000001061688900B0FBF1F06421B0FBF1F0A7
:103A200000EBC00101EB0010A7EB8000322101EB9D
:103A300000106421B0FBF1F000F00F003044216869
:103A40008860BDE8F081000000380140014691F82F
:103A5000390021282CD18868B0F5805F0FD10A6A1F
:103A60001088C0F308000B685860086918B9086A24
:103A7000801C086209E0086A401C086205E00B6AC5
:103A8000581C086218780B685860C88C401E80B2B9
:103A9000C88458B90868C06820F080000B68D860F6
:103AA0000868C06840F040000B68D860002070478C
:103AB0000220FCE710B50248FEF7CEFF10BD000063
:103AC0002001002000BFFEE7490050EAC12018BFD6
:103AD00004204A0D18BF40F0010040F2FF72B2EB23
:103AE000515F08BF40F00200012808BF0520704761
:103AF0002DE9F0414F1E00EBC7010446D1E900015A
:103B000015461E4637F006020DD02A463346FCF70E
:103B1000E3FC7F1E04EBC703D3E90023FCF787FB1C
:103B200037F00602F1D1022F25D0042F13D0062F33
:103B300018BFBDE8F0812A463346FCF7CDFCD4E936
:103B40000A23FCF774FB2A463346FCF7C5FCD4E98C
:103B50000823FCF76CFB2A463346FCF7BDFCD4E98E
:103B60000623FCF764FB2A463346FCF7B5FCD4E990
:103B70000423FCF75CFB2A463346FCF7ADFCD4E992
:103B80000223FCF754FB2A463346FCF7A5FCD4E994
:103B90000023BDE8F041FCF74ABB000000221346B9
:103BA00010460149FCF70ABD0000F03FFCF73FBB9F
:103BB0000022134610461146FCF700BD40F20132C8
:103BC00000204FF0E041FCF768BD0000024A0020F1
:103BD0001107FCF762BD000001FDFFFF02E008C80D
:103BE000121F08C1002AFAD170477047002001E077
:103BF00001C1121F002AFBD1704700000149086073
:103C0000704700003C0000202DE9F041C1F30A524A
:103C1000A2F2FF362F4A304B0D460446142E2FDAFF
:103C2000002E12DAFCF703FB00221346FCF74CFDD2
:103C30004CD2002DA4BF0024254647DA25F00040D1
:103C4000204318BF254D41D018E0DFF894C02CFA6E
:103C500006F705EA070C5CEA040C08BFBDE8F08132
:103C6000FCF7E5FA00221346FCF72EFD2ED2002DBC
:103C700003DA4FF48010F0400544BD43002425E0F2
:103C8000332EC8BFBDE8F081A6F1140C4FF0FF370A
:103C900027FA0CF73C4208BFBDE8F081FCF76BFB4C
:103CA00000221346FCF710FD10D2002D0DDA142E61
:103CB00008BF6D1C09D0C6F13400012101FA00F0E3
:103CC0002044A04238BF6D1C0446BC432946204610
:103CD000BDE8F0819C7500883CE4377E0000F0BFB1
:103CE000FFFF0F0070B5002500BF4FF47A7400226B
:103CF0004FF480711048FDF75FFC012251020E481D
:103D0000FDF75AFC00224FF480610B48FDF754FC8C
:103D10000122D1020848FDF74FFC00BF07480068A8
:103D2000C4620648C46000BF204604EBD0714A104C
:103D3000024909680A6470BD00140140A000002017
:103D400010B5012211020A48FDF736FC00224FF49B
:103D500000710748FDF730FC012291020448FDF78D
:103D60002BFC00224FF400610148FDF725FC10BD3B
:103D70000014014010B5012211020A48FDF71CFC95
:103D800000224FF400710748FDF716FC00224FF4A3
:103D900080610448FDF710FC0122D1020148FDF7C3
:103DA0000BFC10BD0014014010B500224FF48071CF
:103DB0000948FDF701FC012251020748FDF7FCFB11
:103DC000012291020448FDF7F7FB00224FF4006145
:103DD0000148FDF7F1FB10BD0014014008B5FDF7E7
:103DE00003FCFFF731FBFFF7E1F9FFF783F9FFF77A
:103DF000AFF9FFF753FAFFF7A9FAFFF7CDFA4F4AE9
:103E00004F495048FCF788FDFCF794FD0C214E48C3
:103E1000FEF7ACFDFEF792FF4CA000680090002476
:103E200000BF00BF4A484B49FFF7EEFE054600229F
:103E3000494BFCF79DFA0746FCF7B1FA44B220461D
:103E4000FCF79CFA05462A460B464448444900F0D4
:103E50008FF83D494968481C6FE001226946414896
:103E6000FEF726FF40480068B0F5AF6F04D33E4828
:103E70000068B0F5166F07D99DF80000772803D0C9
:103E80009DF8000073281CD138480068B0F5967F73
:103E900005D33648006840F24651884203D99DF860
:103EA0000000732802D1FFF71DFF0AE02F480068C9
:103EB000B0F52F6F03D29DF80000772801D1FFF7EE
:103EC0003FFF2A48006840F2AA51884205D327489C
:103ED000006840F68C21884207D99DF800006128CF
:103EE00003D09DF8000064281DD11F480068B0F57C
:103EF000967F05D31C48006840F21451884203D9CC
:103F00009DF80000612802D1FFF74EFF0BE0164834
:103F1000006840F6C411884203D29DF8000064286E
:103F200001D1FFF727FF2820FDF7A4F9002106485B
:103F3000006801645F208DF800008EE7E00000203B
:103F40007000002040000020A00000205F00000062
:103F500052346C6CE8AF4740000042403174D99253
:103F60008FF3F03F2001002000000020040000201B
:103F70002DE9F04D1D460C4698B0174621F0004142
:103F800023F00043002814BF4FF0010C4FF0000C49
:103F90000CEB440CFE4A0CEB02064FEA620C664541
:103FA0002BD33E0018BF012606EB45061644F94AFE
:103FB000964222D3F84A53EA070C02D0944205D124
:103FC00048B918B000201146BDE8F08D002808BFA0
:103FD0004FF0000C01D04FF0010C0CEB440212F535
:103FE000001F0AD8002F14BF4FF0010C4FF0000C37
:103FF0000CEB450212F5001F07D918B03A462B46C4
:104000002146BDE8F04DFFF7D1BD0022DFF88CA3BB
:10401000002CB8BF534526DADFF884C36345A8BF38
:10402000022220DADFF870C39C451CDCDFF874C381
:104030000CEB235CBCF1140F08DDCCF1340627FA3D
:1040400006FC0CFA06F6BE420DD108E05FB9CCF1D1
:10405000140623FA06FC0CFA06F69E4203D10CF075
:104060000102C2F1020251EA000C19D1002D17DA47
:10407000002C18BF022A01D0012A07D00220FFF726
:10408000BDFD18B0BDE8F04DFFF788BD0220FFF779
:10409000B5FDFFF783FD18B081F00041BDE8F08D5C
:1040A000B7F1000C6CD1534525D104F1804212F5D3
:1040B000801201BF00280020B74918B008BFBDE832
:1040C000F08DB548884207DC002DA1BF6046294627
:1040D00018B0BDE8F08D07E0281E05DA80F0004139
:1040E00018B06046BDE8F08DAF497944D1E90001D0
:1040F00018B0BDE8F08DDFF8A0C2634525D1002DD2
:104100001FDA19B1514512D1D8B909E0002840F0A1
:10411000EC82A24A214618B062F31E01BDE8F08D80
:104120000020214618B060F31E01BDE8F08D08DACA
:1041300018B02346BDE8F04D024600206146FCF76A
:104140003DBA18B02146BDE8F08D514518DAB5F1F9
:10415000804F0DD0A5F1005CBCF1FF5C10D1B4F133
:10416000000C0DDB18B06146BDE8F04D00F0ECBB73
:10417000234618B00246BDE8F04D1946FCF7ACB92D
:10418000060024F0004C3BD1D9B1514533D1002C6D
:1041900006DD002DA1BF0020514618B0BDE8F08D0E
:1041A000002C01DD002D1BDB002C13DA002D11DBB0
:1041B000012A4FF0000014BF78497C4918B0BDE8CF
:1041C000F08D022A18BF002C0AD0012A08D1002C39
:1041D00006DA0AE0002CB8BF002D11DA012A04D05B
:1041E000002018B00146BDE8F08D18B000204FF057
:1041F0000041BDE8F08DA1F14050B0F17F601AD0D0
:10420000012000EBE47050EA020421D0624C521EFF
:104210004FF0000B104304BF4FF0000B644C654897
:1042200083427CDD644A654893421FDD884217DB88
:10423000002D25DB37E0002C00DA4AB1022A0CBF42
:1042400001204FF0FF3018B0BDE8F04DFCF796B8F4
:104250000120FFF7D3FC18B0BDE8F04DFFF7A8BC74
:104260004D4A8A4202DC002D0ADC1CE0814202DA5F
:10427000002D18DA04E0484B994220DD002D12DDB4
:104280000220FFF7BBFCFFF799FC05460E46002213
:10429000534658462146FCF71FF918B066F31E0135
:1042A0002846BDE8F08D0220FFF7A8FCFFF78EFC42
:1042B0000A46214618B062F31E01BDE8F08D0022C7
:1042C00030466146FCF754F880460E466FF0010216
:1042D000FCF7E3F94FF05532394BFCF74CF8424606
:1042E0003346FCF7F9F80022364BFCF744F88246D7
:1042F00042463346049110461946FCF7EDF8524603
:10430000049BFCF7E9F88A4600904FF0C0422E4B20
:1043100040463146FCF7E0F82C4A2B4B00E027E002
:10432000CDE9060151460098FCF7D6F88246019186
:10433000274A284B40463146FCF7CEF85246019BAF
:10434000FCF716F882460B4602460591DDE90601A8
:10435000FBF76DFFDDE90623002688463046FCF7B3
:1043600007F85246059BFCF706F8024600F07EB9B6
:104370000020B1F5801F07DA352230466146FCF790
:104380008CF906466FF0340000EB215024E0000069
:10439000FFFF1F00FFFF0F000000F03F0000F07F55
:1043A0000000404301FCFFFF4A0900000000F0FF4D
:1043B0000000F0BF0000E0410000F043FFFFEF3FCE
:1043C0005555D53F0000E03F4715F73FFE822B656E
:1043D00044DF5DF80BAE543EA0F2FF300190C1F314
:1043E000130040F07F6141F040510291FE49884244
:1043F000D8BF002004DDFD498142C8BF012001DD96
:104400000D9008E000200D900198401C019002984A
:10441000A0F5801002900299F54878440B910D990F
:1044200000EBC100D0E900230F9330460A920B99AC
:10443000FBF79EFFCDE90601DDE90A2130460F9B1F
:10444000FBF7F5FE02460B460020EA49FCF7B6F8FA
:10445000059102460B460090DDE90601FCF73CF8A9
:104460001490E5488A464FF00008784402990068A5
:1044700012904FF0005040EA61010D980F9B01EB44
:10448000804000F5002109910A9A1298FBF770FF0D
:1044900032460B9BFBF76FFF42465346FCF71CF876
:1044A0000646029140465146099B129AFCF714F8C1
:1044B000DDE90623FBF75FFF3246029BFBF758FF5F
:1044C000059B009AFCF708F80091149A0490534653
:1044D00010461946FCF700F806460246C7480B4648
:1044E000029106217844FFF703FBCDE90510029BFA
:1044F000324610461946FBF7EFFFDDE90532FBF7C0
:10450000EBFF05910646534640461946149AFBF7C1
:104510008EFE009B049AFBF7DFFF3246059BFBF7FC
:1045200086FECDE905104246534610461946FBF774
:10453000D3FF0022B24B02910A90FBF778FEDDE92F
:104540000532FBF774FE0E464246AD4B4046FBF784
:104550000FFF029B0A9AFBF70BFFDDE90532FBF721
:104560000AFF424602910A90334610465146FBF735
:10457000B3FFCDE906015346149A02990A98FBF756
:10458000ABFF8A4602903346424600990498FBF7F7
:10459000A3FF5346029AFBF74AFE82460B460246A9
:1045A0000591DDE90601FBF742FEDDE90623002067
:1045B00088460646FBF7DCFE5246059BFBF7DBFE12
:1045C000824609914FF060428E4B30464146FBF7E0
:1045D00083FF049006918C4A8A4B50460999FBF759
:1045E0007BFF82460291894A894B30464146FBF760
:1045F00073FF5246029BFBF71AFE864B7B440D9AD3
:1046000003EBC203D3E90023FBF711FE0E900791E1
:104610000198FBF7B3FE0591DDE9061382460E9A79
:104620000498FBF704FE7C4A7A440D9B02EBC3031B
:10463000D3E9002300930292FBF7F9FD5246059B54
:10464000FBF7F5FD0026884652463046059BFBF7F2
:104650008FFE009B029AFBF78BFE069B049AFBF7EA
:1046600087FE079B0E9AFBF786FE024600200B464C
:10467000029038462946FBF72FFF824601912B46D0
:1046800038461946029AFBF773FE32464346FBF75B
:1046900023FF5246019BFBF7CAFD07468A46324676
:1046A000434629460298FBF717FF05460E463A4651
:1046B0005346FBF7BCFD594A8846914221DBA8EBE3
:1046C000020353EA000210D12A463346FBF750FE9C
:1046D000CDE90401524A534B38465146FBF7A7FD3A
:1046E000DDE90423FBF7F0FF21D20220FFF786FA71
:1046F000FFF764FA0A46214618B062F31E01BDE8CE
:10470000F08D494B28F000429A4210D3474A08EBFB
:10471000020353EA00027FF4C6AD2A463346FBF794
:1047200027FE3A465346FBF7CFFF7FF6BCAD00228B
:10473000019228F000403E493E4A01EB205182425E
:1047400023DA481C4FF4801121FA00F040443A4A21
:10475000C0F30A517A44394BA1F2FF31CB4020EA31
:104760000303C0F3130040F48010C1F11401C840EA
:1047700012680190B8F1000FBCBF4042019028467A
:104780003146FBF7F5FD05460E462A4633463846C8
:104790005146FBF74CFD4FF000084246284B40467F
:1047A0000591FBF799FECDE90601264A264B4046C6
:1047B0000599FBF791FE009102902A463346404648
:1047C0000599FBF7D5FD3A465346FBF7D4FD1F4A42
:1047D0001F4BFBF781FE009B029AFBF728FD074663
:1047E000884602460B4635E08E9803007AB60B00E9
:1047F000920500000000F03FCA050000F804000028
:104800000000084009C7EE3FFD033ADCF5015B14E8
:10481000E02F3EBED0030000940300000000904053
:10482000FE822B654715973C00CC904000346F3FCB
:1048300001FCFFFF0000E03FE0020000FFFF0F006F
:10484000432EE63F396CA80C615C20BEEF39FAFEBE
:10485000422EE63FDDE90601FBF7E9FCDDE9062330
:1048600005460E46FBF784FD3A464346FBF783FDBB
:104870000F462A463346009010461946FBF72CFE99
:10488000824602462E4888460B4605217844FFF7AB
:104890002FF952464346FBF71FFE2A463346FBF7E5
:1048A0006AFD80468A463B4628463146009AFBF719
:1048B00013FE3B46009AFBF7BAFC069100900022DB
:1048C0004FF0804340465146FBF752FD0F460C9097
:1048D0004246534628463146FBF7FEFD3B460C9ABE
:1048E000FBF76CFE069B009AFBF742FD2A46334617
:1048F000FBF73EFD0022134BFBF73DFD05460198FB
:104900000E4601EB00510815002810DC2846314600
:10491000019AFBF7C2FEFFF7D7F8042808BFFFF79C
:1049200055F928463146019AFBF7B7FE05460B4676
:1049300018B02A4658462146BDE8F04DFBF7CCBDDD
:10494000800100000000F03F2DE9F04106460F46CF
:10495000FBF7E4FE041E0D4618BF0120284320F09B
:104960000040C0F17F6000F1E040C00F0ED0301C6D
:1049700018BF0120384320F00040C0F17F6000F1F3
:10498000E040C00F04BF0120FFF738F92046294658
:10499000BDE8F081000000000000000001020304F7
:1049A00006070809000000000102030400000000DF
:1049B000000000000000F03F000000000000F83F91
:1049C00000000000000000000000004003B8E23FCB
:1049D000000000000000000006D0CF43EBFD4C3E7D
:1049E000033333333333E33FFFAB6FDBB66DDB3F72
:1049F0004D268F515555D53F01411DA96074D13FBA
:104A000065DBC9934A86CD3FEF4E454A287ECA3FB3
:104A10003E5555555555C53F93BDBE166CC166BF35
:104A20002CDE25AF6A56113FF16BD2C541BDBBBE2E
:104A3000D0A4BE726937663E00000000000000008E
:104A4000604A00080000002040000000DC3B000835
:104A5000A04A00084000002020050000EC3B0008B0
:104A60000000000000000000000000001000000036
:104A70000100000000A24A04000000000000000045
:104A80000000000000000000000000000000000026
:104A90000000000000004001F000000000000000E5
:04000005080001519D
:00000001FF
