:020000040800F2
:10000000D005002065010008752F00089928000818
:10001000712F000885030008653600080000000005
:10002000000000000000000000000000DD2F0008BC
:100030008903000800000000B12F0008DF2F00082E
:100040007F0100087F0100087F0100087F01000890
:100050007F0100087F0100083D0400087F010008BF
:100060007F0100087F0100087F0100087F01000870
:100070007F0100087F0100087F0100087F01000860
:100080007F0100087F010008950200087F01000839
:100090007F0100087F0100087F0100087F01000840
:1000A0007F0100087F0100087F0100087F01000830
:1000B0007F0100087F0100087F0100087F01000820
:1000C0007F0100087F0100087F0100087F01000810
:1000D0007F010008553600087F0100087F010008F5
:1000E0007F0100087F0100087F0100080000000078
:1000F0000000000000000000000000000000000000
:1001000000000000000000007F0100087F010008DF
:100110007F0100087F010008E93000087F01000826
:100120007F0100087F0100087F0100087F010008AF
:100130007F0100087F0100087F0100087F0100089F
:100140007F0100087F0100087F0100087F0100088F
:10015000DFF80CD000F08CF800480047C1370008E9
:10016000D00500200648804706480047FEE7FEE726
:10017000FEE7FEE7FEE7FEE7FEE7FEE7FEE7FEE757
:1001800085300008510100082DE9F05F0546002088
:1001900092469B4688460646814640241BE02846F8
:1001A00041464746224600F020F853465A46C01AB8
:1001B000914110D311461846224600F04AF82D1AF4
:1001C00067EB01084F4622460120002100F041F86C
:1001D00017EB00094E41201EA4F10104DFDC484664
:1001E00031462A464346BDE8F09F202A04DB203AE8
:1001F00021FA02F00021704721FA02F3D040C2F147
:100200002002914008431946704740EA01039B07CA
:1002100003D009E008C9121F08C0042AFAD203E07B
:1002200011F8013B00F8013B521EF9D27047D2B2DF
:1002300001E000F8012B491EFBD270470022F6E7CF
:1002400010B513460A4604461946FFF7F0FF20464C
:1002500010BD202A04DB203A00FA02F1002070478A
:100260009140C2F1200320FA03F3194390407047F4
:10027000064C074D06E0E06840F0010394E80700F3
:1002800098471034AC42F6D3FFF766FFA83B00084E
:10029000C83B000810B5034800F040FA024800F0DF
:1002A0003DFA10BD4C0000207C00002070B50446D3
:1002B00000252068806800F00100F0B120688068A7
:1002C00020F001002168886000F00AFF05460EE07A
:1002D00000F006FF401B022809D9A06A40F0100078
:1002E000A062E06A40F00100E062012070BD206879
:1002F000806800F001000028EAD10020F6E7000045
:1003000038B504460025002000902068806800F081
:10031000010080BB2068806840F00100216888608F
:10032000164800681649B0FBF1F0009002E0009812
:10033000401E009000980028F9D100F0D1FE05463B
:1003400013E000F0CDFE401B02280ED9A06A40F059
:100350001000A062E06A40F00100E06200BF0020EF
:1003600084F8240000BF012038BD2068806800F0B8
:1003700001000028E5D00020F6E70000240000205E
:1003800040420F0000BFFEE77047000070B5054611
:100390000C46322D06D3322C04D311480560114887
:1003A00004601CE000200E4908600E49086000222D
:1003B0004FF480710C4800F08DFE00224FF4007164
:1003C000094800F087FE00224FF48061064800F0E3
:1003D00081FE00224FF40061034800F07BFE70BDF7
:1003E000000000200400002000140140034B1860AE
:1003F000034B1960034B1A6070470000280000206F
:100400002C0000203000002010B5002007490870A3
:100410000748006800F018F80648006800F014F873
:100420000548006801F060FE10BD00004400002097
:10043000280000202C0000203000002010B50120F2
:1004400000F0ACFC10BD7047F8B504460026002053
:10045000009000BF94F82400012801D10220F8BDCB
:10046000012084F8240000BF2046FFF71FFF064646
:10047000002E62D1A06A20F4885040F00200A062F1
:10048000022000F003FF30490968B1FBF0F04000A2
:10049000009002E00098401E009000980028F9D1DA
:1004A0002046FFF72DFF2068806840F00800216893
:1004B000886000F015FE054611E000F011FE401BBB
:1004C0000A280CD9A06A20F0020040F01000A062B7
:1004D00000BF002084F8240000BF0120BFE720688F
:1004E000806800F008000028E7D12068806840F0AC
:1004F00004002168886000F0F3FD054611E000F07B
:10050000EFFD401B0A280CD9A06A20F0020040F041
:100510001000A06200BF002084F8240000BF01206A
:100520009DE72068806800F004000028E7D1A06AF9
:1005300020F0020040F00100A06200BF002084F81B
:10054000240000BF30468AE72400002070470000E6
:1005500038B5024600230020009000BF92F8240026
:10056000012801D1022038BD012082F8240000BFFB
:100570004868072812D21068406B0C79641E04EB9F
:1005800084051F24AC40A0430D796D1E05EB850545
:100590000C68AC4020431468606327E048680D286D
:1005A00012D21068006B0C79E41F04EB84051F2441
:1005B000AC40A0430D79ED1F05EB85050C68AC4000
:1005C00020431468206311E01068C06A0C790D3C68
:1005D00004EB84051F24AC40A0430D790D3D05EBD1
:1005E00085050C68AC4020431468E06208680A285E
:1005F00012D31068C0680C780A3C04EB4405072449
:10060000AC40A0430D780A3D05EB45058C68AC4035
:1006100020431468E0600FE0106800690C7804EB78
:1006200044050724AC40A0430D7805EB45058C68D4
:10063000AC402043146820610868102802D0086884
:10064000112827D1174C1068A0421ED1106880686D
:1006500000F40000F0B91068806840F400001468ED
:10066000A0600868102815D10F4800680F4CB0FB37
:10067000F4F000EB80004000009002E00098401E83
:10068000009000980028F9D104E0906A40F0200022
:100690009062012300BF002082F8240000BF1846AA
:1006A00061E70000002401402400002040420F00C8
:1006B00010B504461149206809680968884209D1C3
:1006C0000E48006800F026F80D49086002200D4928
:1006D000087012E00C4920680968096888420CD14A
:1006E0000948006800F016F80849086004480068E6
:1006F0000749086004200349087010BD2800002045
:1007000034000020440000202C0000204000002085
:100710003C00002001460868C06C704710B50446D4
:100720002068406800F0200020282FD12068006851
:1007300000F00200022829D1A06A00F0100018B9C8
:10074000A06A40F40070A0622068806800F4602015
:10075000B0F5602F13D1E06888B92068406820F0B8
:10076000200021684860A06A20F48070A062A06A1E
:1007700000F4805018B9A06A40F00100A062204641
:10078000FFF796FF6FF0120021680860206840684C
:1007900000F0800080283BD12068006800F0040051
:1007A000042835D1A06A00F0100018B9A06A40F4FE
:1007B0000050A0622068806800F4E040B0F5E04F8F
:1007C0000DD02068406800F48060D0B9206880684F
:1007D00000F46020B0F5602F13D1E06888B920687C
:1007E000406820F0800021684860A06A20F48050B2
:1007F000A062A06A00F4807018B9A06A40F00100FD
:10080000A0622046FFF7A2FE6FF00C00216808608E
:100810002068406800F0400040280FD12068006840
:1008200000F0010050B1A06A40F48030A062204680
:1008300000F0A8F86FF001002168086010BD00000A
:100840002DE9F0410446002700250026A84614B9EA
:100850000120BDE8F081A06810B1606900B100BF5F
:10086000A06A30B90020E06284F82400204600F03D
:100870008BF82046FFF71AFD0746A06A00F010002B
:10088000002873D1002F71D1A06A20F4885040F065
:100890000200A062E16960680843E16840EA410043
:1008A0000643A068B0F5807F02D0A068012802D17D
:1008B0004FF4807000E0002005436069012811D1E9
:1008C000E06838B9A069401E4FF4006141EA403049
:1008D000054307E0A06A40F02000A062E06A40F013
:1008E0000100E0622068406820F4694028432168E4
:1008F000486020688068214908403043216888604A
:10090000A068B0F5807F02D0A068012802D14FF422
:10091000807000E00020B0F5807F03D1208A401E67
:100920004FEA00582068C06A20F4700040EA0800CE
:100930002168C8622068806811490840B04208D127
:100940000020E062A06A20F0020040F00100A062F6
:1009500011E0A06A20F0020040F01000A062E06AFE
:1009600040F00100E062012705E0FFE7A06A40F0E7
:100970001000A062012738466BE70000FDF7E1FF99
:10098000FE0E1FFF7047000010B586B00446002021
:1009900002900390049005903049206888422BD142
:1009A00000BF2F48806940F400702D4988610846D7
:1009B000806900F40070019000BF00BF00BF0846CE
:1009C000806940F0080088610846806900F00800EE
:1009D000019000BF00BF012002900320039002A9F4
:1009E000204800F0E9F900221146122000F0FBFB3C
:1009F000122000F0EBFB2EE01B49206888422AD130
:100A000000BF1748806940F4806015498861084636
:100A1000806900F48060019000BF00BF00BF0846FD
:100A2000806940F0080088610846806900F008008D
:100A3000019000BF00BF022002900320039002A992
:100A4000084800F0B9F900221146122000F0CBFB53
:100A5000122000F0BBFB06B010BD000000240140D6
:100A600000100240000C01400028014070B504460F
:100A7000002500BF94F82400012801D1022070BD98
:100A8000012084F8240000BF2046FFF739FC05460A
:100A9000002D7DD1A06A40F60161884340F480704A
:100AA000A0623F492068884208D13E48006800F4AF
:100AB000702008B9012002E0002000E0012078B198
:100AC000A06A20F48010A0622068406800F4806072
:100AD00000B3A06A20F4005040F48050A06219E0F6
:100AE000A06A40F48010A0622E49091F2068884245
:100AF00003D02B492068884204D12A48006800F4BA
:100B0000806000E0002028B1A06A20F4005040F48A
:100B10008050A062A06A00F4805020B1E06A20F00A
:100B20000600E06201E00020E06200BF002084F8DF
:100B3000240000BFC01E216808602068406840F0A3
:100B40002000216848602068806800F46020B0F5CB
:100B5000602F16D112492068884208D111480068D8
:100B600000F4702008B9012002E0002000E001201C
:100B700038B12068806840F4A000216888600CE0EB
:100B800006E02068806840F480102168886004E0F6
:100B900000BF002084F8240000BF28466FE7000053
:100BA000002801400424014070B50446002594F853
:100BB0002100022803D00420A0630125C1E02068A1
:100BC000006820F00E00216808602068006820F0AE
:100BD0000100216808605C492068884252D95A495E
:100BE00078392068884201D1012047E056496439AC
:100BF0002068884201D1102040E0534950392068D4
:100C0000884201D1801539E04F493C39206888423B
:100C100001D1801432E04C4928392068884202D141
:100C20004FF480302AE0484914392068884202D1C4
:100C30004FF4801022E044492068884201D14004EA
:100C40001CE042492068884201D1012016E03F495A
:100C500014312068884201D110200FE03B4928312F
:100C60002068884201D1801508E038493C3120686D
:100C7000884201D1801401E04FF480303349091FCC
:100C8000086051E0304978392068884201D101205C
:100C900047E02D4964392068884201D1102040E0A6
:100CA000294950392068884201D1801539E0264908
:100CB0003C392068884201D1801432E02249283929
:100CC0002068884202D14FF480302AE01E4914394E
:100CD0002068884202D14FF4801022E01A4920682F
:100CE000884201D140041CE018492068884201D1A3
:100CF000012016E0154914312068884201D11020E6
:100D00000FE0124928312068884201D1801508E09F
:100D10000E493C312068884201D1801401E04FF433
:100D20008030094980394860012084F8210000BFE3
:100D3000002084F8200000BF606B10B12046616B7A
:100D40008847284670BD0000800002400804024029
:100D500070B5044600F0C4F906462546681C10B17B
:100D600004480078054400BF00F0BAF9801BA8428F
:100D7000FAD370BD2000002001280AD10549097866
:100D800009B9012100E00021024A11700021024A44
:100D900011607047080000201000002010B50446C4
:100DA00004480068204020B1024804602046FFF754
:100DB000E3FF10BD140401402DE9F8470346002469
:100DC000002000258446002700226EE14FF0010834
:100DD00008FA02F4D1F8008008EA0400A0427DD1AC
:100DE000DFF8D0A2D1F80480A8EB0A09D0453AD0A8
:100DF00014DCB8F1030F50D009DCB8F1000F31D08A
:100E0000B8F1010F1CD0B8F1020F49D120E0B8F1C0
:100E1000110F18D0B8F1120F42D11EE0B9F5881F9A
:100E200025D006DCB9F5803F20D0B9F5801F37D139
:100E30001AE0B9F5001F18D0B9F5041F30D117E03A
:100E4000D1F80CC02DE0D1F80C8008F1040C28E09A
:100E5000D1F80C8008F1080C23E0D1F80C8008F1DF
:100E60000C0C1EE000BF00BF00BF00BF00BF00BFF2
:100E7000D1F80880B8F1000F02D14FF0040C0BE05C
:100E8000D1F80880B8F1010F03D14FF0080C1C61B4
:100E900002E04FF0080C5C6103E04FF0000C00E052
:100EA00000BF00BFFF2801D8984601E003F1040805
:100EB0004646FF2802D84FEA820803E0A2F108085C
:100EC0004FEA88084746D6F800804FF00F0909FA24
:100ED00007F928EA09080CFA07F900E088E048EA6F
:100EE0000908C6F80080D1F8048008F08058B8F1ED
:100EF000805F7DD100BFDFF8C081D8F8188048F04E
:100F00000108DFF8B491C9F81880C846D8F81880ED
:100F100008F00108CDF8008000BF00BF4FEAB938E3
:100F20004FEA920958F829504FEA82784FEA187927
:100F30004FF00F0808FA09F825EA0805DFF87C8168
:100F4000434502D14FF0000816E0DFF874814345B5
:100F500002D14FF001080FE0DFF86881434502D16C
:100F60004FF0020808E0DFF86081434502D14FF0FE
:100F7000030801E04FF004084FEA82794FEA19793B
:100F800008FA09F848EA0505DFF840814FEA9209B6
:100F900048F82950D1F8048008F48038B8F5803F2B
:100FA0000AD1DFF82C81D8F8008048EA0008DFF881
:100FB0002091C9F8008009E0DFF81481D8F800809A
:100FC00028EA0008DFF80891C9F80080D1F8048009
:100FD00008F40038B8F5003F10D1DFF8F48008F1CC
:100FE0000408D8F8008048EA0008DFF8E49000E040
:100FF0005AE009F10409C9F800800DE0DFF8D0805B
:1010000008F10408D8F8008028EA0008DFF8C0904A
:1010100009F10409C9F80080D1F8048008F48018A7
:10102000B8F5801F0ED1DFF8A88008F10808D8F8BD
:10103000008048EA0008DFF8989009F10809C9F82B
:1010400000800DE0DFF8888008F10808D8F80080FB
:1010500028EA0008DFF8789009F10809C9F800804B
:10106000D1F8048008F40018B8F5001F0ED1DFF89D
:10107000608008F10C08D8F8008048EA0008DFF822
:10108000509009F10C09C9F800800DE0DFF84080AC
:1010900008F10C08D8F8008028EA0008DFF8309042
:1010A00009F10C09C9F80080521C102AFFF48EAE19
:1010B000BDE8F88700001110001002400008014050
:1010C000000C0140001001400014014008000140E4
:1010D000000401400AB1016101E00B0403617047A3
:1010E00001480068704700001800002003480068AD
:1010F0000349097808440149086070471800002036
:101100002000002010B50848006840F01000064993
:101110000860032000F0A6F8002000F007F800F0B7
:101120002BF8002010BD00000020024070B50446DE
:101130000E4800784FF47A71B1FBF0F00C49096861
:10114000B1FBF0F5284600F007FF08B1012070BDA3
:10115000102C07D200222146501E00F044F805480A
:10116000046001E00120F2E70020F0E72000002009
:10117000240000201C00002008B500BF1148806931
:1011800040F001000F4988610846806900F00100C5
:10119000009000BF00BF00BF0846C06940F080500B
:1011A000C8610846C06900F08050009000BF00BFD1
:1011B00000BF0549486820F0E06040F000704860DA
:1011C00000BF08BD001002400000014000BF00F059
:1011D0001F02012191404209920002F1E022C2F86F
:1011E000001100BF70472DE9F05F80460D4616469E
:1011F000002701F0C1FE074639462A46334601F072
:101200000700C0F1070ABAF1040F02D94FF0040A2F
:1012100001E0C0F1070AD14600F1040ABAF1070F54
:1012200002D24FF0000A01E0A0F1030AD4464FF0C9
:10123000010A0AFA09FAAAF1010A0AEA020A0AFAF2
:101240000CFA4FF0010B0BFA0CFBABF1010B0BEAA4
:10125000030B4AEA0B042146404601F095FEBDE827
:10126000F09F000000BF00F00702064B19684FF620
:10127000FF031940044B0B4343EA0221014B196061
:1012800000BF70470CED00E00000FA052DE9F04FBB
:1012900089B080467DA1D1E90023D1E90201CDE9E1
:1012A0000523CDE907017DA3D3E90020D3E902138B
:1012B00002AC0BC401924FF0000900250026AB469A
:1012C000AA460027002400200090B8F1040F59D04E
:1012D00006DCB8F1010F76D0B8F1020F74D1C2E08C
:1012E000B8F1080F72D0B8F1100FF7D16F48446809
:1012F000006800F08070002843D005A8C4F3834143
:10130000465C04F4803058B36848C06A00F00F00AF
:1013100001A911F800906548C06A00F48030A0B1BE
:101320006248C06AC0F30310471C6048C06AC0F33B
:10133000032000F1020B5E48B0FBF7F000FB0BF05E
:10134000B0FBF9F000FB06F504E05948B0FBF9F0FA
:1013500000FB06F59DF82100B04204D16D0802E0C3
:10136000544806FB00F55148406800F48000B0F591
:10137000800F01D1009504E068000321B0FBF1F07B
:1013800000907DE04948C06A00F4003018B900F0D0
:10139000ABFA009016E04548006800F0805088B134
:1013A0004248C06AC0F30310471C4048C06AC0F3FB
:1013B000033000F1020A3E48B0FBF7F000FB0AF0F0
:1013C000400000905CE022E059E0FFE73748C06A47
:1013D00000F4802018B900F087FA009016E0334836
:1013E000006800F0805088B13048C06AC0F3031034
:1013F000471C2E48C06AC0F3033000F1020A2C4893
:10140000B0FBF7F000FB0AF04000009038E02748FE
:10141000046A04F44070B0F5807F06D104F0020045
:1014200018B14FF4004000901CE004F44070B0F597
:10143000007F08D11D48406A00F0020018B149F64B
:10144000404000900EE004F44070B0F5407F07D1BA
:101450001648006800F4003010B11748009001E011
:10146000002000900CE000F02FFA10494968C1F309
:101470008131491C4900B0FBF1F0009000E000BF51
:1014800000BF009809B0BDE8F08F0000000004051F
:101490000607080900000000000D00000102030417
:1014A00005060708090A0B0C0D0E0F10001002406C
:1014B00040787D0100093D00F0FA02002DE9F84373
:1014C0000446002600250027207800F001000028AF
:1014D0006ED0A8467948C06900F0805078B900BF46
:1014E0007648C06940F080507449C8610846C069B8
:1014F00000F08050009000BF00BF4FF0010870481E
:10150000006800F48070B8B96D48006840F48070DD
:101510006B490860FFF7E4FD064607E0FFF7E0FDD2
:10152000801B642802D90320BDE8F8836448006862
:1015300000F480700028F1D06048006A00F4407523
:101540002DB3A08800F44070A84220D05B48006A08
:1015500020F4407501205B4908600020086057486E
:10156000056205F0010090B1FFF7BAFD064608E0FC
:10157000FFF7B6FD801B41F28831884201D9032074
:10158000D2E74E48006A00F002000028F0D04B4835
:10159000006A20F440706168084348490862B8F165
:1015A000010F04D10846C06920F08050C86100BF17
:1015B000207800F00200022807D14048406820F45B
:1015C0004040A16808433D494860207800F004008D
:1015D000042807D13948C06A20F40030E168084384
:1015E0003649C862207800F00800082807D133483F
:1015F000C06A20F48020216908433049C8622F481E
:10160000C06A00F4003020B92C48C06A00F4802081
:1016100000B10127012F41D12848006800F0805017
:1016200090BB2648006800F0806040B12348C06A43
:1016300000F0F001A069814201D0012074E71F4849
:10164000C06A20F0F000A16908431C49C86208463E
:10165000C06A20F47040616908431849C8620120DB
:1016600019490867FFF73CFD064606E0FFF738FD1D
:10167000801B642801D9032056E71048006800F059
:1016800000500028F2D009E0FFE70C48C06A00F4DF
:1016900070406169884201D0012045E7207800F060
:1016A0001000102807D10548406820F48000E16947
:1016B000084302494860002036E70000001002405D
:1016C00000700040400442420000424270B50446AF
:1016D0000D4600266D48006800F00700A8420ED2B3
:1016E0006A48006820F007002843684908600846F7
:1016F000006800F00700A84201D0012070BD2078EA
:1017000000F0020002281DD1207800F00400042817
:1017100005D15F48406840F4E0605D49486020784A
:1017200000F00800082805D15948406840F460508E
:10173000574948605648406820F0F000A1680843C7
:1017400053494860207800F0010000285DD06068AF
:10175000012806D14E48006800F4003090B90120FD
:10176000CCE76068022806D14948006800F00070A4
:1017700040B90120C2E74648006800F0020008B9FD
:101780000120BBE74248406820F00300616808433D
:101790003F494860FFF7A4FC06466068012810D165
:1017A00008E0FFF79DFC801B41F28831884201D997
:1017B0000320A3E73648406800F00C000428F0D16D
:1017C00023E06068022810D108E0FFF789FC801B45
:1017D00041F28831884201D903208FE72C484068C4
:1017E00000F00C000828F0D10FE008E0FFF778FCCB
:1017F000801B41F28831884201D903207EE72448CA
:10180000406800F00C000028F0D12048006800F08B
:101810000700A8420ED91D48006820F007002843A1
:101820001A4908600846006800F00700A84201D085
:10183000012063E7207800F00400042807D1144851
:10184000406820F4E060E16808431149486020786E
:1018500000F00800082808D10D48406820F46050C6
:10186000216940EAC1000A49486000F03DF8084992
:101870004968C1F30311074A515CC8400649086032
:101880000020FFF753FC002038E700000020024052
:1018900000100240903B000824000020014800682E
:1018A000704700002400002000B5FFF7F7FF04494F
:1018B0004968C1F30221034A515CC84000BD0000E1
:1018C00000100240A03B000800B5FFF7E7FF044905
:1018D0004968C1F3C221034A515CC84000BD000001
:1018E00000100240A03B00082DE9F04F8BB03CA255
:1018F000D2E901311068D268CDE908310A92079027
:101900003BA3D3E90020D3E9021304AC0BC4039238
:101910004FF00009CB46CA460024002002900190F7
:1019200000903748D0F8049009F00C0000284FD000
:10193000042802D008284AD102E0324802904AE046
:1019400007A8C9F38341445C09F48030C0B32C4834
:10195000C06A00F00F0003A911F800B02848C06A5F
:1019600000F4803008B32648C06AC0F30310401C5E
:1019700001902348C06AC0F30320801C00900198A6
:10198000A0FB0B5006461F490098A1FB0021002335
:10199000A2FB047C01FB04C102FB03112A4633466F
:1019A0003846FEF7F1FB824603E016486043B0FB81
:1019B000FBFA9DF82900A04206D14FEA5A0A03E03B
:1019C000FFE7114804FB00FACDF808A003E000BFD0
:1019D0000E48029000BF00BF02980BB0BDE8F08F28
:1019E000000004050607080900000000000D0000C3
:1019F0000102030405060708090A0B0C0D0E0F105F
:101A00000010024040787D0100093D0000127A007C
:101A1000F8B504460025207800F00100002878D0B1
:101A2000FD48406800F00C0004280CD0FA484068DB
:101A300000F00C00082811D1F748406800F480300D
:101A4000B0F5803F0AD1F448006800F40030002867
:101A50005FD0A06800285CD10120F8BD00BFA0685D
:101A6000B0F5803F06D1EC48006840F48030EA4988
:101A7000086028E0A06858B9E748006820F4803082
:101A8000E54908600846006820F4802008601AE0F4
:101A9000A068B0F5A02F0BD1DF48006840F480208B
:101AA000DD4908600846006840F4803008600AE0BC
:101AB000D948006820F48030D7490860084600689B
:101AC00020F48020086000BFA06888B1FFF708FB01
:101AD000054606E0FFF704FB401B642801D90320FC
:101AE000BBE7CD48006800F400300028F2D010E0D9
:101AF000FFF7F6FA054606E0FFF7F2FA401B642806
:101B000001D90320A9E7C448006800F40030002888
:101B1000F2D1207800F00200022857D1BE48406878
:101B200000F00C0050B1BC48406800F00C000828E0
:101B300018D1B948406800F4803098B9B6480068B8
:101B400000F0020020B16069012801D0012084E783
:101B5000B148006820F0F800A16940EAC100AE4930
:101B6000086033E06069E8B10120AC490860FFF724
:101B7000B7FA054606E0FFF7B3FA401B022801D981
:101B800003206AE7A448006800F002000028F2D0B1
:101B9000A148006820F0F800A16940EAC1009E4910
:101BA000086013E000209D490860FFF799FA054698
:101BB00006E0FFF795FA401B022801D903204CE705
:101BC0009548006800F002000028F2D1207800F06B
:101BD000080008282DD1E069B8B1012090490860BB
:101BE000FFF77EFA054606E0FFF77AFA401B022867
:101BF00001D9032031E78848406A00F0020000283C
:101C0000F2D0012001F0D6F913E0002084490860E9
:101C1000FFF766FA054606E0FFF762FA401B022866
:101C200001D9032019E77C48406A00F0020000282F
:101C3000F2D1207800F00400042873D10026764801
:101C4000C06900F0805070B900BF7348C06940F0AF
:101C500080507149C8610846C06900F0805000900A
:101C600000BF00BF01266F48006800F48070B0B963
:101C70006C48006840F480706A490860FFF730FAE9
:101C8000054606E0FFF72CFA401B642801D9032023
:101C9000E3E66448006800F480700028F2D000BFDA
:101CA0002069012806D15C48006A40F001005A49C9
:101CB000086227E0206958B95748006A20F00100FF
:101CC000554908620846006A20F00400086219E0DD
:101CD000206905280BD15048006A40F004004E49A5
:101CE00008620846006A40F0010008620AE04A48BB
:101CF000006A20F00100484908620846006A20F0A6
:101D00000400086200BF2069A0B1FFF7E9F90546A9
:101D100009E0FFF7E5F9401B41F28831884202D91A
:101D200003209AE622E03C48006A00F00200002806
:101D3000EFD012E0FFF7D4F9054608E0FFF7D0F93D
:101D4000401B41F28831884201D9032085E63248A0
:101D5000006A00F002000028F0D1012E05D12E48C3
:101D6000C06920F080502C49C86100BFE06AA0B370
:101D70002948406800F48030B0F5803F0ED12648F5
:101D8000406800F00C00082808D12348C06A00F41D
:101D90008030B0F5803F01D101205EE6E06A022884
:101DA00050D11D48006800F0805040B11A48C06A08
:101DB00000F0F001606B814201D001204DE600206F
:101DC00016498866FFF78CF9054607E0FFF788F9A2
:101DD000401B642802D903203FE64DE00E4800680E
:101DE00000F000600028F1D10B48C06A20F0F0003C
:101DF000616B08430849C8620846C06A20F47060F5
:101E0000216B08430449C862012004498866FFF732
:101E100067F905460FE00000001002400000424252
:101E20008004424200700040FFF75AF9401B6428CA
:101E300001D9032011E64648006800F00060002840
:101E4000F2D019E04248C06A20F480304049C862AC
:101E5000002040498866FFF743F9054606E0FFF792
:101E60003FF9401B642801D90320F6E53848006893
:101E700000F000600028F2D1206AE0B334484068E6
:101E800000F00C0008285ED0206A022846D100200D
:101E900030490866FFF724F9054606E0FFF720F908
:101EA000401B022801D90320D7E52948006800F02B
:101EB00000700028F2D1606AB0F5803F0DD124484F
:101EC000C06A616808432249C8620846C06A20F0B7
:101ED0000F00E16808431E49C862D4E909010843BC
:101EE0001B49496821F474110843194948600120CD
:101EF0001849086600E028E0FFF7F2F8054606E01A
:101F0000FFF7EEF8401B022801D90320A5E5104891
:101F1000006800F000700028F2D016E000200D49A3
:101F20000866FFF7DDF8054606E0FFF7D9F8401B25
:101F3000022801D9032090E50548006800F00070F0
:101F40000028F2D101E0012087E5002085E50000AE
:101F5000001002400000424270B504462546681E4B
:101F6000B0F1807F01D301200FE0681E4FF0E02127
:101F700048610F214FF0FF3001F006F800204FF0CC
:101F8000E021886107200861002070BD704770471C
:101F900010B50346002200BF93F83C00012801D190
:101FA000022010BD012083F83C0000BF22F0FF009A
:101FB000CC6840EA040222F440708C6840EA0402D3
:101FC00022F480604C6840EA040222F400600C684D
:101FD00040EA040222F480500C6940EA040222F430
:101FE00000504C6940EA040222F480408C6940EAC7
:101FF000040222F400408C6940EA0402186842643A
:1020000000BF002083F83C0000BF00BFC9E70246C4
:1020100000BF92F83C00012801D102207047012046
:1020200082F83C0000BF022082F83D001068406842
:1020300020F0700013685860106840680B681843FF
:10204000136858601068806820F0800013689860FA
:10205000106880684B68184313689860012082F804
:102060003D0000BF002082F83C0000BF00BFD5E764
:1020700010B504460CB9012010BD94F83D0028B9F4
:10208000002084F83C00204600F00CF8022084F880
:102090003D00211D206801F02FF8012084F83D004B
:1020A0000020E9E738B504460D492068884215D17B
:1020B00000BF0C48C06940F010000A49C8610846DA
:1020C000C06900F01000009000BF00BF0022114660
:1020D0003620FFF788F83620FFF778F838BD000083
:1020E000001000400010024001460868C06840F03F
:1020F00001000A68D0600868006840F001000A68C2
:10210000106000207047704710B5044620680069D1
:10211000C0F34000D8B12068C068C0F34000B0B13F
:102120006FF0020021680861012020772068806933
:1021300000F0030018B12046FFF7E5FF05E0204658
:1021400000F0E8F8204600F09DF900202077206894
:102150000069C0F38000D8B12068C068C0F3800077
:10216000B0B16FF004002168086102202077206878
:10217000806900F4407018B12046FFF7C4FF05E005
:10218000204600F0C7F8204600F07CF900202077B8
:1021900020680069C0F3C000D8B12068C068C0F3EF
:1021A000C000B0B16FF008002168086104202077FA
:1021B0002068C06900F0030018B12046FFF7A3FFB4
:1021C00005E0204600F0A6F8204600F05BF900206C
:1021D000207720680069C0F30010D8B12068C0687B
:1021E000C0F30010B0B16FF0100021680861082042
:1021F00020772068C06900F4407018B12046FFF7CE
:1022000082FF05E0204600F085F8204600F03AF90C
:10221000002020772068006900F0010058B1206894
:10222000C06800F0010030B16FF001002168086162
:10223000204600F049F920680069C0F3C01058B189
:102240002068C068C0F3C01030B16FF08000216812
:1022500008612046FFF79AFE20680069C0F38010ED
:1022600058B12068C068C0F3801030B16FF04000F2
:1022700021680861204600F07BF920680069C0F3FE
:10228000401058B12068C068C0F3401030B16FF002
:102290002000216808612046FFF779FE10BD00008C
:1022A00010B586B00446002002900390049005907B
:1022B00014492068884222D100BF1348806940F049
:1022C0004000114988610846806900F04000019093
:1022D00000BF00BF4FF480400290022003900590A1
:1022E00002A90A48FEF768FD00BF0949486820F0C6
:1022F000C00040F0E06040F0C000486000BF06B0A1
:1023000010BD0000002C01400010024000180140E8
:1023100000000140704770B504460D46164600BFE8
:1023200094F83C00012801D1022070BD012084F8FE
:102330003C0000BF022084F83D0036B1042E1BD0C3
:10234000082E31D00C2E5ED145E02946206800F0E1
:1023500023FF2068806940F00800216888612068B8
:10236000806920F0040021688861206880692969FB
:1023700008432168886147E02946206800F03EFF55
:102380002068806940F40060216888612068806965
:1023900020F480602168886120688069296940EAAA
:1023A0000120216888612FE02946206800F05EFF47
:1023B0002068C06940F008002168C8612068C069D1
:1023C00020F004002168C8612068C06929690843B9
:1023D0002168C86118E02946206800F07DFF206868
:1023E000C06940F400602168C8612068C06920F4B9
:1023F00080602168C8612068C069296940EA0120BD
:102400002168C86100E000BF00BF012084F83D00E2
:1024100000BF002084F83C0000BF00BF85E710B576
:1024200004460CB9012010BD94F83D0028B90020E5
:1024300084F83C00204600F00DF8022084F83D00AE
:10244000211D206800F058FE012084F83D00002086
:10245000E9E7000008B5094A016891420DD100BFC3
:102460000749896941F40061054A9161114689690A
:1024700001F40061009100BF00BF08BD002C0140C5
:10248000001002407047000030B504460D4601229E
:102490002946206800F072FE0A492068884201D16E
:1024A000012000E0002028B12068406C40F400408A
:1024B000216848642068006840F0010021680860D5
:1024C000002030BD002C014010B5044622480078A1
:1024D00006283DD2DFE800F003121A29313B012023
:1024E0001D490870012201021C48FEF7F3FD00227D
:1024F0004FF400711948FEF7EDFD2AE0052016495A
:10250000087017480068FEF7B1FA22E0032012496C
:10251000087000224FF480711048FEF7DBFD0122A5
:1025200051020E48FEF7D6FD13E005200A49087057
:102530000C480068FEF79AFA0BE000200649087084
:102540000948016809480068FDF720FF01E000E044
:1025500000BF00BF10BD000044000020000C01407F
:10256000280000202C000020400000203C0000201B
:10257000704770472DE9F0470446206805682068D9
:10258000C668206847694FF00008C14605F00F088B
:10259000B8F1000F0AD105F0200038B106F0200094
:1025A00020B1204600F0EAFEBDE8F087B8F1000F48
:1025B0006DD007F0010018B906F49070002866D0BD
:1025C00005F0010030B106F4807018B1E06B40F006
:1025D0000100E06305F0040030B107F0010018B11C
:1025E000E06B40F00200E06305F0020030B107F05C
:1025F000010018B1E06B40F00400E06305F0080052
:1026000030B107F0010018B1E06B40F00800E06362
:10261000E06B68B305F0200028B106F0200010B18F
:10262000204600F0ABFE20684069C0F38019E06BE3
:1026300000F0080010B9B9F1000F22D0204600F0D8
:102640007DFE2068406900F04000B0B1206840691C
:1026500020F0400021684861606B50B11748616B01
:102660004863606BFEF7A0FA10B1606B416B88475E
:102670000CE02046FFF77DFF08E02046FFF779FFDA
:1026800004E02046FFF775FF0020E0638CE705F0CB
:10269000800030B106F0800018B1204600F0A6FF9F
:1026A00082E705F0400030B106F0400018B1204646
:1026B00000F054FE78E700BF76E7000029330008F9
:1026C00010B504460CB9012010BDA06900B100E0AE
:1026D00000BF94F8390028B9002084F8380020465B
:1026E00000F028F8242084F839002068C06820F41D
:1026F00000502168C860204600F094FE2068006900
:1027000020F49040216808612068406920F02A0088
:10271000216848612068C06840F400502168C860A2
:102720000020E063202084F8390084F83A0000207B
:10273000CAE7000010B586B004460020029003905E
:10274000049005901E492068884236D100BF1D487C
:10275000806940F480401B4988610846806900F424
:102760008040019000BF00BF00BF0846806940F074
:10277000040088610846806900F00400019000BFF1
:1027800000BF48150290022003900320059002A983
:102790000D48FEF711FB4FF480600290002003907B
:1027A000049002A90848FEF707FB002211462520E5
:1027B000FEF719FD2520FEF709FD06B010BD00004B
:1027C00000380140001002400008014010B50346E7
:1027D00093F83A0020282FD101B10AB9012010BD89
:1027E00000BF93F83800012801D10220F7E701204B
:1027F00083F8380000BF99629A85DA850020D86393
:10280000222083F83A0000BF002083F8380000BF80
:102810001868C06840F480701C68E06018684069FF
:1028200040F001001C6860611868C06840F020003A
:102830001C68E0600020D2E70220D0E7704710B5A6
:10284000034693F83900202823D101B10AB90120A9
:1028500010BD00BF93F83800012801D10220F7E72E
:10286000012083F8380000BF19629A84DA840020BE
:10287000D863212083F8390000BF002083F8380096
:1028800000BF1868C06840F080001C68E06000204D
:10289000DEE70220DCE7704700BFFEE710B501224B
:1028A00011020248FEF716FC10BD0000001801409E
:1028B00010B5FFF7F3FF00F009F900F021F901204E
:1028C00000F07CF94FF47A70FEF742FACB2000F06A
:1028D00075F9392000F09EF92C2000F09BF90020BA
:1028E00000F098F9342000F095F9022000F092F9F8
:1028F000CF2000F063F9002000F08CF9832000F075
:1029000089F9302000F086F9E82000F057F9852099
:1029100000F080F9012000F07DF9792000F07AF9CB
:10292000EA2000F04BF9002000F074F9002000F0DC
:1029300071F9ED2000F042F9642000F06BF90320FA
:1029400000F068F9122000F065F9812000F062F9CA
:10295000F72000F033F9202000F05CF9C02000F0EF
:102960002DF9262000F056F9C12000F027F911209A
:1029700000F050F9C52000F021F9352000F04AF9A7
:102980003E2000F047F9C72000F018F9BE2000F003
:1029900041F9362000F012F9482000F03BF93A20C6
:1029A00000F00CF9552000F035F9B12000F006F9DF
:1029B000002000F02FF91B2000F02CF9B62000F0C9
:1029C000FDF80A2000F026F9822000F023F92720E4
:1029D00000F020F9002000F01DF9F22000F0EEF8E0
:1029E000082000F017F9262000F0E8F8012000F098
:1029F00011F9E02000F0E2F81F2000F00BF91A2096
:102A000000F008F9182000F005F90A2000F002F99A
:102A10000F2000F0FFF8062000F0FCF8452000F041
:102A2000F9F8872000F0F6F8322000F0F3F80A20D9
:102A300000F0F0F8072000F0EDF8022000F0EAF8CE
:102A4000072000F0E7F8052000F0E4F8002000F08F
:102A5000E1F8E12000F0B2F8002000F0DBF82520DA
:102A600000F0D8F8272000F0D5F8052000F0D2F8C3
:102A7000102000F0CFF8092000F0CCF83A2000F048
:102A8000C9F8782000F0C6F84D2000F0C3F8052002
:102A900000F0C0F8182000F0BDF80D2000F0BAF8E2
:102AA000382000F0B7F83A2000F0B4F81F2000F00A
:102AB000B1F8112000F082F87820FEF749F92920BA
:102AC00000F07CF8012000F035F810BD10B50122AF
:102AD00091020A48FEF7FEFA00224FF4004107482F
:102AE000FEF7F8FA0122D1030448FEF7F3FA0122B7
:102AF000D1020248FEF7EEFA10BD000000180140B6
:102B000010B5012211020A48FEF7E4FAC820FEF7C8
:102B10001FF900224FF400410548FEF7DBFAC820F8
:102B2000FEF716F9012211020148FEF7D3FA10BD93
:102B30000018014070B504462546362000F03EF8E6
:102B40000120FEF705F935B1012D0FD0022D18D067
:102B5000032D2CD120E0482000F05CF8F02015492E
:102B600008804FF4A0701449088021E0282000F06C
:102B700051F84FF4A0700F490880F0200E490880EA
:102B800016E0882000F046F8F0200A4908804FF44B
:102B9000A070094908800BE0E82000F03BF84FF4F2
:102BA000A07004490880F0200349088000E000BFBD
:102BB00000BF70BD480000204600002070B50446EC
:102BC000254600224FF400411148FEF783FA002207
:102BD0004FF480510E48FEF77DFAE8436FF07F41D5
:102BE00001EA0040E9B208430949103108600022B7
:102BF000C9140748FEF76EFA0122D1020448FEF715
:102C000069FA0122D1030248FEF764FA70BD0000A0
:102C10000018014070B50446254600224FF40041DB
:102C20001048FEF757FA012211030E48FEF752FA38
:102C3000E8436FF07F4101EA0040E9B208430949E7
:102C4000103108600022C9140648FEF743FA012239
:102C5000D1020448FEF73EFA0122D1030148FEF7F3
:102C600039FA70BD001801400EB5002000900190A7
:102C70000290124812490860002111488160C16029
:102C800041614FF46021C16100200D49486001217C
:102C90000B480161FDF7D4FD08B1FDF7D4FB082016
:102CA0000090012001900020029069460448FDF741
:102CB0004FFC08B1FDF7C7FB0EBD0000002401402A
:102CC0004C0000200EB500200090019002901248A8
:102CD00012490860002111488160C16041614FF4D0
:102CE0006021C16100200D49486001210B4801614C
:102CF000FDF7A6FD08B1FDF7A6FB09200090012015
:102D000001900020029069460448FDF721FC08B1BB
:102D1000FDF799FB0EBD0000002801407C0000205B
:102D200000B585B00020019002900390049000BF90
:102D30003D48806940F010003B4988610846806941
:102D400000F01000009000BF00BF00BF084680697F
:102D500040F0080088610846806900F00800009093
:102D600000BF00BF00BF0846806940F04000886196
:102D70000846806900F04000009000BF00BF00BF1F
:102D80000846806940F0200088610846806900F0AC
:102D90002000009000BF00BF00BF0846806940F0DF
:102DA000040088610846806900F00400009000BFBC
:102DB00000BF00224FF470611C48FEF78BF900221F
:102DC0004FF440711A48FEF785F901200190194827
:102DD00002900020039001A91748FDF7EDFF4FF482
:102DE0007060019001200290002003900220049066
:102DF00001A90E48FDF7E0FF4FF44070019001205B
:102E00000290002003900220049001A90848FDF7D9
:102E1000D3FF002211460620FEF7E5F90620FEF753
:102E2000D5F905B000BD00000010024000140140BB
:102E3000000C0140000011100010014000B591B0DD
:102E400000200F9010901C2108A8FDF7F7F91C2115
:102E500001A8FDF7F3F923482349086015204860CD
:102E60000021214881604FF6FF71C160002101619E
:102E700041618161FFF7D3FA08B1FDF7E4FA002060
:102E80000F9010900FA91848FFF7C1F808B1FDF78F
:102E9000DAFA602008903220099000200A900C9005
:102EA0000D900E900C2208A90F48FFF734FA08B1D4
:102EB000FDF7C9FA0020019002900390049005905C
:102EC0004FF4005006900020079001A90648FFF734
:102ED0005FF808B1FDF7B7FA0348FFF7E1F911B061
:102EE00000BD0000002C0140AC0000201CB50020FB
:102EF000009001900E480F4908600F2048600021A3
:102F00000C4881604FF6FF71C16000218161FFF7BD
:102F1000AFF808B1FDF797FA0020009001906946DC
:102F20000448FFF774F808B1FDF78DFA1CBD0000E6
:102F300000100040EC00002010B50B480B49086061
:102F40004FF416504860002108488160C16001615B
:102F50000C21416100218161C161FFF7B1FB08B122
:102F6000FDF771FA10BD0000003801402C0100206F
:102F700000BFFEE77047000002480068C0F302206F
:102F8000704700000CED00E010B5002807DA0A07D2
:102F9000140E054A00F00F031B1FD45403E00A0768
:102FA000130E024A135410BD18ED00E000E400E0D7
:102FB0007047000008B508490968C9084FF47A72DB
:102FC000B1FBF2F14143009100BF00BF00994A1EDE
:102FD00000920029F9D108BD24000020704710B5E7
:102FE000FEF784F810BD000000B59BB038210DA895
:102FF000FDF724F9142108A8FDF720F920216846DF
:10300000FDF71CF901200D9000040F900420109092
:103010000120129000040E9002201590C103169119
:103020004FF4E011179118904FF4C06119914021AD
:103030001A910DA8FEF7ECFC08B1FDF704FA0F2079
:1030400008900220099000200A904FF480600B90B5
:1030500000200C90022108A8FEF738FB08B1FDF70C
:10306000F2F902200090800302906846FEF726FAEB
:1030700008B1FDF7E8F90120014908671BB000BD60
:10308000000042421448006840F001001249086004
:1030900008464068114908400F49486008460068E2
:1030A0000F4908400C4908600846006820F4802059
:1030B00008600846406820F4FE0048600846006842
:1030C00020F0A05008604FF47F0088600020C862A4
:1030D000C803044908607047001002400000FFF078
:1030E000FFFFF6FE08ED00E010B50248FFF70CF810
:1030F00010BD0000EC000020002202681B4B98422B
:103100000BD0B0F1804F08D0194B984205D0194B25
:10311000984202D0184B984203D122F070024B68BB
:103120001A43124B98420BD0B0F1804F08D0104B8D
:10313000984205D00F4B984202D00F4B984203D1D2
:1031400022F44072CB681A4322F080024B691A4382
:1031500002608B68C3620B688362044B984201D1A2
:103160000B6903630123436170470000002C014099
:103170000004004000080040000C004030B500236F
:10318000012404FA01F3046A9C430462046A02FA0B
:1031900001F52C43046230BD30B500240022002329
:1031A000056A25F001050562026A4368846924F016
:1031B000700424F003040D682C4322F002028D6891
:1031C0002A430D4DA84206D100BF22F00802CD6867
:1031D0002A4322F00402084DA84207D123F4807349
:1031E00023F400734D692B438D692B434360846145
:1031F0004D684563026230BD002C014030B50024AB
:1032000000220023056A25F010050562026A436862
:10321000846924F4E04424F440740D6844EA0524ED
:1032200022F020028D6842EA05120F4DA84207D114
:1032300000BF22F08002CD6842EA051222F040026F
:10324000094DA84209D123F4806323F400634D693A
:1032500043EA85038D6943EA8503436084614D68D1
:103260008563026230BD0000002C014030B50024AF
:1032700000220023056A25F480750562026A43680E
:10328000C46924F0700424F003040D682C4322F474
:1032900000728D6842EA05220E4DA84207D100BF98
:1032A00022F40062CD6842EA052222F48062094DD0
:1032B000A84209D123F4805323F400534D6943EA13
:1032C00005138D6943EA05134360C4614D68C56306
:1032D000026230BD002C014030B5002200230024E2
:1032E000056A25F480550562036A4468C26922F4C0
:1032F000E04222F440720D6842EA052223F40053B2
:103300008D6843EA0533074DA84204D124F4804474
:103310004D6944EA85144460C2614D6805640362E6
:1033200030BD0000002C014070B505466C6A0020DD
:10333000E085E0842046FFF71CF970BD0168C9688C
:1033400021F490710268D1600168496921F001019E
:1033500002685161202180F83A10704710B5044688
:103360002068C06820F040002168C860202084F8F0
:1033700039002046FFF78FFA002010BD70B50446D3
:1033800094F83A0022284AD1A068B0F5805F13D1A2
:10339000A56A206940B920684068C0F30800288009
:1033A000A06A801CA06219E020684068C0B2288032
:1033B000A06A401CA06211E0206938B9206840680A
:1033C000C1B2A26A501CA062117007E02068406878
:1033D00000F07F01A26A501CA0621170E08D401EB7
:1033E00080B2E085C8B92068C06820F0200021685C
:1033F000C8602068C06820F480702168C8602068B8
:10340000406920F0010021684861202084F83A00DA
:103410002046FFF713FA002070BD0020FCE70220D1
:10342000FAE700002DE9F041044600252068006914
:1034300020F44050E1680843216808612169A068D0
:1034400008436169084305432068C06841F20C6184
:10345000884328432168C8602068406920F4407090
:10346000A1690843216848615F49206888425CD1AE
:10347000FEF72AFA00EBC00101EB00106168890039
:10348000B0FBF1F6FEF720FA00EBC00101EB0010F3
:1034900061688900B0FBF1F06421B0FBF1F000EB52
:1034A000C00101EB0010A6EB8000322101EB0010FF
:1034B0006421B0FBF1F000F0F006FEF705FA00EB36
:1034C000C00101EB001061688900B0FBF1F06421DC
:1034D000B0FBF1F006EB0016FEF7F6F900EBC001C9
:1034E00001EB001061688900B0FBF1F7FEF7ECF921
:1034F00000EBC00101EB001061688900B0FBF1F046
:103500006421B0FBF1F000EBC00101EB0010A7EB70
:103510008000322101EB00106421B0FBF1F000F0DB
:103520000F003044216888605BE0FEF7BDF900EBD6
:10353000C00101EB001061688900B0FBF1F6FEF7F5
:10354000B3F900EBC00101EB001061688900B0FB2A
:10355000F1F06421B0FBF1F000EBC00101EB0010D1
:10356000A6EB8000322101EB00106421B0FBF1F0EA
:1035700000F0F006FEF798F900EBC00101EB001037
:1035800061688900B0FBF1F06421B0FBF1F006EB5B
:103590000016FEF789F900EBC00101EB001061682D
:1035A0008900B0FBF1F7FEF77FF900EBC00101EBFA
:1035B000001061688900B0FBF1F06421B0FBF1F00C
:1035C00000EBC00101EB0010A7EB8000322101EB02
:1035D00000106421B0FBF1F000F00F0030442168CE
:1035E0008860BDE8F081000000380140014691F894
:1035F000390021282CD18868B0F5805F0FD10A6A84
:103600001088C0F308000B685860086918B9086A88
:10361000801C086209E0086A401C086205E00B6A29
:10362000581C086218780B685860C88C401E80B21D
:10363000C88458B90868C06820F080000B68D8605A
:103640000868C06840F040000B68D86000207047F0
:103650000220FCE710B50248FEF78CFF10BD000009
:103660002C01002000BFFEE702E008C8121F08C1BD
:10367000002AFAD170477047002001E001C1121FF3
:10368000002AFBD17047000010B500224FF4807172
:103690001748FDF71FFD012251021548FDF71AFDDD
:1036A00000224FF480611248FDF714FD0122D1027F
:1036B0000F48FDF70FFD0F480068401C0D490860DA
:1036C00000BF0D4800880D490968C8620A48018892
:1036D0000A48C16000BF0849088800EBD0714A1051
:1036E000064909680A642820FDF732FB10BD000076
:1036F000001401401000002014000020AC00002045
:1037000010B5012211020E48FDF7E4FC00224FF42F
:1037100000710B48FDF7DEFC012291020848FDF71D
:10372000D9FC00224FF400610548FDF7D3FC0548A1
:103730000068401C034908602820FDF709FB10BD04
:10374000001401401000002010B5012211020C48A5
:10375000FDF7C0FC00224FF400710948FDF7BAFCE8
:1037600000224FF480610648FDF7B4FC0122D1022B
:103770000348FDF7AFFC2820FDF7EAFA10BD000072
:103780000014014010B500224FF480710B48FDF782
:10379000A1FC012251020948FDF79CFC0122910283
:1037A0000648FDF797FC00224FF400610348FDF73F
:1037B00091FC2820FDF7CCFA10BD00000014014058
:1037C00086B0FDF79FFCFFF70FFCFFF7A9FAFFF7A4
:1037D0004BFAFFF777FAFFF731FBFFF787FBFFF7AD
:1037E000ABFBD84AD849D948FCF700FEFCF70CFEE1
:1037F0000C21D748FEF748FEFFF75AF8D5A000681D
:103800000590002003E00021D34A1154401C642895
:10381000F9DB96E1D14805681422D1A16846FCF78E
:10382000F4FC0E270FE00A2195FBF1F201FB125088
:1038300000F13001C9B20DF807102D1A0A2195FBCD
:10384000F1F57F1E00BF002DEDD111226946C94858
:10385000FEF7F5FFC848007800285DD1002654E047
:103860000024BD488057012806D002280FD0032825
:1038700018D004282CD120E002E0FFF741FF641C9F
:103880000A2CFADB4FF4FA70FDF762FA20E002E04E
:10389000FFF7FAFE641C0A2CFADB4FF4FA70FDF70E
:1038A00057FA15E002E0FFF74FFF641C052CFADB26
:1038B0004FF4FA70FDF74CFA0AE002E0FFF762FFFE
:1038C000641C052CFADB4FF4FA70FDF741FA00BFD7
:1038D00000BF00224FF48071A848FDF7FBFB0022D7
:1038E0004FF40071A548FDF7F5FB00224FF480610D
:1038F000A248FDF7EFFB00224FF400619F48FDF75F
:10390000E9FB002094498855761C9D480068864252
:10391000A6DB00209A490860012205A99548FEF718
:1039200055FF98480068B0F5AF6F04D3954800681C
:10393000B0F5166F07D99DF81400772803D09DF8CD
:10394000140073286ED190480068B0F5967F05D3B7
:103950008D48006840F24651884203D99DF8140012
:1039600073282BD18448007810B9FFF78DFE59E0F9
:1039700002207949824A1268885481480068401CB4
:103980007F49086000BF8148008871490968C862A2
:103990007E4801886E48C16000BF7C49088800EB02
:1039A000D0714A106A4909680A644FF44870FDF7FB
:1039B000CFF9002166480068016433E0724800686E
:1039C000B0F52F6F03D29DF8140077282AD16A48EA
:1039D000007810B9FFF794FE24E001205E49684AA0
:1039E0001268885466480068401C6549086000BF3A
:1039F0006648008856490968C86264480188544886
:103A0000C16000BF6149088800EBD0714A1050497D
:103A100009680A644FF44870FDF79AF900214C4890
:103A2000006801645848006840F2AA51884205D3F2
:103A30005548006840F68C21884207D99DF814004B
:103A4000612803D09DF8140064286FD14D480068A8
:103A5000B0F5967F05D34B48006840F21451884278
:103A600003D99DF8140061282BD14348007810B980
:103A7000FFF76AFE5AE003203749414A126888542A
:103A80003F480068401C3E49086000BF3F4800882E
:103A90002F490968C8623D4801882D48C16000BFB0
:103AA0003A49088800EBD0714A10294909680A642C
:103AB0004FF44870FDF74CF9002125480068016477
:103AC00034E03048006840F6C411884203D29DF8C3
:103AD000140064282AD12848007810B9FFF752FE54
:103AE00024E004201C49264A1268885424480068AF
:103AF000401C2349086000BF244800881449096815
:103B0000C862224801881248C16000BF1F49088866
:103B100000EBD0714A100E4909680A644FF44870EE
:103B2000FDF716F900210A48006801642820FDF716
:103B30000FF900210648006801645F208DF8140029
:103B400000BF67E6EC0000207C0000204C00002055
:103B5000AC0000205F0000006C010020100000207D
:103B600044697374616E63653A2030303030300DD3
:103B70000A0000002C010020080000200014014071
:103B80000C00002000000020040000201400002091
:103B900000000000000000000102030406070809FD
:103BA0000000000001020304C83B000800000020E0
:103BB0004C00000068360008143C00084C0000204F
:103BC00084050000783600080000000000000000B6
:103BD000000000000000000000000000E8030000FA
:103BE00000000000100000000100000000A24A04D4
:103BF00000000000000000000000000000000000C5
:103C00000000000000000000000000000000400173
:043C1000F0000000C0
:04000005080001519D
:00000001FF
